{
  "_format": "hh-sol-artifact-1",
  "contractName": "RoyaltyManager",
  "sourceName": "contracts/RoyaltyManager.sol",
  "abi": [
    {
      "inputs": [
        {
          "internalType": "address",
          "name": "musicRightsNftAddress",
          "type": "address"
        }
      ],
      "stateMutability": "nonpayable",
      "type": "constructor"
    },
    {
      "inputs": [],
      "name": "ArrayLengthMismatch",
      "type": "error"
    },
    {
      "inputs": [
        {
          "internalType": "uint256",
          "name": "expected",
          "type": "uint256"
        },
        {
          "internalType": "uint256",
          "name": "provided",
          "type": "uint256"
        }
      ],
      "name": "InsufficientPayment",
      "type": "error"
    },
    {
      "inputs": [],
      "name": "InvalidBpsTotal",
      "type": "error"
    },
    {
      "inputs": [],
      "name": "InvalidPlays",
      "type": "error"
    },
    {
      "inputs": [],
      "name": "InvalidRatePerPlay",
      "type": "error"
    },
    {
      "inputs": [],
      "name": "InvalidRightsHolder",
      "type": "error"
    },
    {
      "inputs": [],
      "name": "InvalidSplit",
      "type": "error"
    },
    {
      "inputs": [],
      "name": "NotAuction",
      "type": "error"
    },
    {
      "inputs": [
        {
          "internalType": "address",
          "name": "owner",
          "type": "address"
        }
      ],
      "name": "OwnableInvalidOwner",
      "type": "error"
    },
    {
      "inputs": [
        {
          "internalType": "address",
          "name": "account",
          "type": "address"
        }
      ],
      "name": "OwnableUnauthorizedAccount",
      "type": "error"
    },
    {
      "inputs": [],
      "name": "ReentrancyGuardReentrantCall",
      "type": "error"
    },
    {
      "inputs": [],
      "name": "TrackNotFound",
      "type": "error"
    },
    {
      "inputs": [
        {
          "internalType": "address",
          "name": "recipient",
          "type": "address"
        },
        {
          "internalType": "uint256",
          "name": "amount",
          "type": "uint256"
        }
      ],
      "name": "TransferFailed",
      "type": "error"
    },
    {
      "anonymous": false,
      "inputs": [
        {
          "indexed": true,
          "internalType": "address",
          "name": "oldAuctionContract",
          "type": "address"
        },
        {
          "indexed": true,
          "internalType": "address",
          "name": "newAuctionContract",
          "type": "address"
        }
      ],
      "name": "AuctionContractUpdated",
      "type": "event"
    },
    {
      "anonymous": false,
      "inputs": [
        {
          "indexed": true,
          "internalType": "address",
          "name": "previousOwner",
          "type": "address"
        },
        {
          "indexed": true,
          "internalType": "address",
          "name": "newOwner",
          "type": "address"
        }
      ],
      "name": "OwnershipTransferred",
      "type": "event"
    },
    {
      "anonymous": false,
      "inputs": [
        {
          "indexed": true,
          "internalType": "uint256",
          "name": "tokenId",
          "type": "uint256"
        },
        {
          "indexed": true,
          "internalType": "address",
          "name": "newRightsHolder",
          "type": "address"
        }
      ],
      "name": "RightsHolderUpdated",
      "type": "event"
    },
    {
      "anonymous": false,
      "inputs": [
        {
          "indexed": true,
          "internalType": "uint256",
          "name": "tokenId",
          "type": "uint256"
        },
        {
          "indexed": false,
          "internalType": "uint256",
          "name": "plays",
          "type": "uint256"
        },
        {
          "indexed": false,
          "internalType": "uint256",
          "name": "totalPaidWei",
          "type": "uint256"
        },
        {
          "indexed": true,
          "internalType": "address",
          "name": "paidBy",
          "type": "address"
        }
      ],
      "name": "RoyaltiesDistributed",
      "type": "event"
    },
    {
      "anonymous": false,
      "inputs": [
        {
          "indexed": true,
          "internalType": "uint256",
          "name": "tokenId",
          "type": "uint256"
        },
        {
          "indexed": true,
          "internalType": "address",
          "name": "recipient",
          "type": "address"
        },
        {
          "indexed": false,
          "internalType": "uint256",
          "name": "amountWei",
          "type": "uint256"
        },
        {
          "indexed": false,
          "internalType": "uint256",
          "name": "plays",
          "type": "uint256"
        }
      ],
      "name": "RoyaltySplitPaid",
      "type": "event"
    },
    {
      "anonymous": false,
      "inputs": [
        {
          "indexed": true,
          "internalType": "uint256",
          "name": "tokenId",
          "type": "uint256"
        },
        {
          "indexed": true,
          "internalType": "address",
          "name": "rightsHolder",
          "type": "address"
        },
        {
          "indexed": false,
          "internalType": "string",
          "name": "title",
          "type": "string"
        },
        {
          "indexed": false,
          "internalType": "string",
          "name": "metadataURI",
          "type": "string"
        },
        {
          "indexed": false,
          "internalType": "uint256",
          "name": "ratePerPlayWei",
          "type": "uint256"
        }
      ],
      "name": "TrackRegistered",
      "type": "event"
    },
    {
      "inputs": [],
      "name": "BPS_DENOMINATOR",
      "outputs": [
        {
          "internalType": "uint96",
          "name": "",
          "type": "uint96"
        }
      ],
      "stateMutability": "view",
      "type": "function"
    },
    {
      "inputs": [],
      "name": "auctionContract",
      "outputs": [
        {
          "internalType": "address",
          "name": "",
          "type": "address"
        }
      ],
      "stateMutability": "view",
      "type": "function"
    },
    {
      "inputs": [
        {
          "internalType": "uint256",
          "name": "tokenId",
          "type": "uint256"
        }
      ],
      "name": "getTrackInfo",
      "outputs": [
        {
          "components": [
            {
              "internalType": "string",
              "name": "title",
              "type": "string"
            },
            {
              "internalType": "uint256",
              "name": "ratePerPlayWei",
              "type": "uint256"
            },
            {
              "internalType": "uint256",
              "name": "totalPlays",
              "type": "uint256"
            },
            {
              "internalType": "uint256",
              "name": "totalRoyaltyPaidWei",
              "type": "uint256"
            },
            {
              "internalType": "uint256",
              "name": "rightsHolderSplitIndex",
              "type": "uint256"
            },
            {
              "internalType": "bool",
              "name": "exists",
              "type": "bool"
            }
          ],
          "internalType": "struct RoyaltyManager.TrackInfo",
          "name": "",
          "type": "tuple"
        }
      ],
      "stateMutability": "view",
      "type": "function"
    },
    {
      "inputs": [
        {
          "internalType": "uint256",
          "name": "tokenId",
          "type": "uint256"
        }
      ],
      "name": "getTrackSplits",
      "outputs": [
        {
          "internalType": "address[]",
          "name": "accounts",
          "type": "address[]"
        },
        {
          "internalType": "uint96[]",
          "name": "bps",
          "type": "uint96[]"
        }
      ],
      "stateMutability": "view",
      "type": "function"
    },
    {
      "inputs": [],
      "name": "musicRightsNFT",
      "outputs": [
        {
          "internalType": "contract MusicRightsNFT",
          "name": "",
          "type": "address"
        }
      ],
      "stateMutability": "view",
      "type": "function"
    },
    {
      "inputs": [],
      "name": "owner",
      "outputs": [
        {
          "internalType": "address",
          "name": "",
          "type": "address"
        }
      ],
      "stateMutability": "view",
      "type": "function"
    },
    {
      "inputs": [
        {
          "internalType": "uint256",
          "name": "tokenId",
          "type": "uint256"
        },
        {
          "internalType": "uint256",
          "name": "plays",
          "type": "uint256"
        }
      ],
      "name": "quoteRoyaltyDistribution",
      "outputs": [
        {
          "internalType": "uint256",
          "name": "totalCost",
          "type": "uint256"
        },
        {
          "internalType": "address[]",
          "name": "recipients",
          "type": "address[]"
        },
        {
          "internalType": "uint256[]",
          "name": "amounts",
          "type": "uint256[]"
        }
      ],
      "stateMutability": "view",
      "type": "function"
    },
    {
      "inputs": [
        {
          "internalType": "string",
          "name": "title",
          "type": "string"
        },
        {
          "internalType": "string",
          "name": "metadataURI",
          "type": "string"
        },
        {
          "internalType": "address[]",
          "name": "splitAccounts",
          "type": "address[]"
        },
        {
          "internalType": "uint96[]",
          "name": "splitBps",
          "type": "uint96[]"
        },
        {
          "internalType": "uint256",
          "name": "rightsHolderSplitIndex",
          "type": "uint256"
        },
        {
          "internalType": "uint256",
          "name": "ratePerPlayWei",
          "type": "uint256"
        }
      ],
      "name": "registerTrack",
      "outputs": [
        {
          "internalType": "uint256",
          "name": "tokenId",
          "type": "uint256"
        }
      ],
      "stateMutability": "nonpayable",
      "type": "function"
    },
    {
      "inputs": [],
      "name": "renounceOwnership",
      "outputs": [],
      "stateMutability": "nonpayable",
      "type": "function"
    },
    {
      "inputs": [
        {
          "internalType": "uint256",
          "name": "tokenId",
          "type": "uint256"
        }
      ],
      "name": "rightsHolderOf",
      "outputs": [
        {
          "internalType": "address",
          "name": "",
          "type": "address"
        }
      ],
      "stateMutability": "view",
      "type": "function"
    },
    {
      "inputs": [
        {
          "internalType": "address",
          "name": "newAuctionContract",
          "type": "address"
        }
      ],
      "name": "setAuctionContract",
      "outputs": [],
      "stateMutability": "nonpayable",
      "type": "function"
    },
    {
      "inputs": [
        {
          "internalType": "uint256",
          "name": "tokenId",
          "type": "uint256"
        },
        {
          "internalType": "uint256",
          "name": "plays",
          "type": "uint256"
        }
      ],
      "name": "simulatePlays",
      "outputs": [],
      "stateMutability": "payable",
      "type": "function"
    },
    {
      "inputs": [
        {
          "internalType": "address",
          "name": "newOwner",
          "type": "address"
        }
      ],
      "name": "transferOwnership",
      "outputs": [],
      "stateMutability": "nonpayable",
      "type": "function"
    },
    {
      "inputs": [
        {
          "internalType": "uint256",
          "name": "tokenId",
          "type": "uint256"
        },
        {
          "internalType": "address",
          "name": "newRightsHolder",
          "type": "address"
        }
      ],
      "name": "updateRightsHolderFromAuction",
      "outputs": [],
      "stateMutability": "nonpayable",
      "type": "function"
    }
  ],
  "bytecode": "0x60a060405234801561000f575f5ffd5b50604051611a9a380380611a9a83398101604081905261002e91610108565b338061005357604051631e4fbdf760e01b81525f600482015260240160405180910390fd5b61005c816100b9565b5060017f9b779b17422d0df92223018b32b4d1fa46e071723d6817e2486d003becc55f00556001600160a01b0381166100a85760405163bcd55b0f60e01b815260040160405180910390fd5b6001600160a01b0316608052610135565b5f80546001600160a01b038381166001600160a01b0319831681178455604051919092169283917f8be0079c531659141344cd1fd0a4f28419497f9722a3daafe3b4186f6b6457e09190a35050565b5f60208284031215610118575f5ffd5b81516001600160a01b038116811461012e575f5ffd5b9392505050565b60805161193f61015b5f395f81816102520152818161094a0152610c1b015261193f5ff3fe6080604052600436106100d9575f3560e01c806378ae02ee1161007c578063908e107311610057578063908e107314610241578063c43187de14610274578063e1a45218146102a2578063f2fde38b146102cf575f5ffd5b806378ae02ee146101da57806389b25d55146102065780638da5cb5b14610225575f5ffd5b8063379d5634116100b7578063379d56341461014d5780634796fb8a1461017a5780636a891703146101a7578063715018a6146101c6575f5ffd5b8063023924c7146100dd5780630ab8afac146100fe57806325e0d3c31461013a575b5f5ffd5b3480156100e8575f5ffd5b506100fc6100f73660046112e6565b6102ee565b005b348015610109575f5ffd5b5060015461011d906001600160a01b031681565b6040516001600160a01b0390911681526020015b60405180910390f35b6100fc610148366004611308565b61036e565b348015610158575f5ffd5b5061016c610167366004611328565b610606565b604051610131929190611382565b348015610185575f5ffd5b50610199610194366004611469565b61077d565b604051908152602001610131565b3480156101b2575f5ffd5b506100fc6101c1366004611548565b610bb1565b3480156101d1575f5ffd5b506100fc610d49565b3480156101e5575f5ffd5b506101f96101f4366004611328565b610d5c565b6040516101319190611576565b348015610211575f5ffd5b5061011d610220366004611328565b610e99565b348015610230575f5ffd5b505f546001600160a01b031661011d565b34801561024c575f5ffd5b5061011d7f000000000000000000000000000000000000000000000000000000000000000081565b34801561027f575f5ffd5b5061029361028e366004611308565b610ee6565b604051610131939291906115f3565b3480156102ad575f5ffd5b506102b761271081565b6040516001600160601b039091168152602001610131565b3480156102da575f5ffd5b506100fc6102e93660046112e6565b6110e1565b6102f661111e565b6001600160a01b03811661031d5760405163bcd55b0f60e01b815260040160405180910390fd5b600180546001600160a01b038381166001600160a01b0319831681179093556040519116919082907f980f16a60059d96cea16d87eb3a277be9a01fe0f10ba79b539ca37d40a2c632c905f90a35050565b61037661114a565b805f0361039657604051634d524fa560e01b815260040160405180910390fd5b5f6103a083611178565b5f8481526003602052604081206001830154929350916103c09085611661565b9050803410156103f15760405163b99e2ab760e01b8152600481018290523460248201526044015b60405180910390fd5b6004830154815f5b84548110156104ca578083146104c2575f85828154811061041c5761041c611678565b5f918252602082200180549092506127109061044890600160a01b90046001600160601b031688611661565b610452919061168c565b905061045e81856116ab565b8254909450610476906001600160a01b0316826111af565b815460408051838152602081018c90526001600160a01b03909216918c917fecd62f3ae02983ea1646a8a419761e25360ffbf10690a84d077719727048ca37910160405180910390a350505b6001016103f9565b505f8483815481106104de576104de611678565b5f9182526020909120018054909150610500906001600160a01b0316836111af565b805460408051848152602081018a90526001600160a01b03909216918a917fecd62f3ae02983ea1646a8a419761e25360ffbf10690a84d077719727048ca37910160405180910390a386866002015f82825461055c91906116be565b9250508190555083866003015f82825461057691906116be565b909155505034841015610596576105963361059186346116ab565b6111af565b604080518881526020810186905233918a917f3ab908723c01167b721972c64b5a8c5e0f085137b5d0c29848b73f748b84fe0d910160405180910390a350505050505061060260017f9b779b17422d0df92223018b32b4d1fa46e071723d6817e2486d003becc55f0055565b5050565b60608061061283611178565b505f83815260036020526040902080548067ffffffffffffffff81111561063b5761063b6116d1565b604051908082528060200260200182016040528015610664578160200160208202803683370190505b5093508067ffffffffffffffff811115610680576106806116d1565b6040519080825280602002602001820160405280156106a9578160200160208202803683370190505b5092505f5b81811015610775578281815481106106c8576106c8611678565b5f9182526020909120015485516001600160a01b03909116908690839081106106f3576106f3611678565b60200260200101906001600160a01b031690816001600160a01b03168152505082818154811061072557610725611678565b905f5260205f20015f0160149054906101000a90046001600160601b031684828151811061075557610755611678565b6001600160601b03909216602092830291909101909101526001016106ae565b505050915091565b5f8580158061078c5750808514155b156107aa5760405163512509d360e11b815260040160405180910390fd5b8084106107ca576040516337a7302b60e11b815260040160405180910390fd5b825f036107ea5760405163767a5aa160e01b815260040160405180910390fd5b5f805b828110156108c1575f8a8a8381811061080857610808611678565b905060200201602081019061081d91906112e6565b6001600160a01b0316148061085f575087878281811061083f5761083f611678565b905060200201602081019061085491906116e5565b6001600160601b0316155b1561087d5760405163bcd55b0f60e01b815260040160405180910390fd5b87878281811061088f5761088f611678565b90506020020160208101906108a491906116e5565b6108b7906001600160601b0316836116be565b91506001016107ed565b5061271081146108e45760405163da005d6960e01b815260040160405180910390fd5b338989878181106108f7576108f7611678565b905060200201602081019061090c91906112e6565b6001600160a01b031614610933576040516337a7302b60e11b815260040160405180910390fd5b60405163209a6f8160e21b81526001600160a01b037f00000000000000000000000000000000000000000000000000000000000000001690638269be04906109839033908f908f90600401611733565b6020604051808303815f875af115801561099f573d5f5f3e3d5ffd5b505050506040513d601f19601f820116820180604052508101906109c39190611760565b92506040518060c001604052808e8e8080601f0160208091040260200160405190810160405280939291908181526020018383808284375f9201829052509385525050506020808301889052604080840183905260608401839052608084018a9052600160a090940193909352868252600290522081518190610a4690826117fa565b506020820151600182015560408201516002820155606082015160038201556080820151600482015560a0909101516005909101805460ff19169115159190911790555f5b82811015610b565760035f8581526020019081526020015f2060405180604001604052808c8c85818110610ac157610ac1611678565b9050602002016020810190610ad691906112e6565b6001600160a01b031681526020018a8a85818110610af657610af6611678565b9050602002016020810190610b0b91906116e5565b6001600160601b039081169091528254600181810185555f94855260209485902084519590940151909216600160a01b026001600160a01b0390941693909317919092015501610a8b565b50336001600160a01b0316837f50ad0392f6f7c15669cf349e656d4ecf13b870e040b9e9c405247d61073493f58f8f8f8f8a604051610b999594939291906118b5565b60405180910390a350509a9950505050505050505050565b6001546001600160a01b03163314610bdc57604051633fbfe96d60e01b815260040160405180910390fd5b6001600160a01b038116610c03576040516337a7302b60e11b815260040160405180910390fd5b5f610c0d83611178565b9050816001600160a01b03167f00000000000000000000000000000000000000000000000000000000000000006001600160a01b0316636352211e856040518263ffffffff1660e01b8152600401610c6791815260200190565b602060405180830381865afa158015610c82573d5f5f3e3d5ffd5b505050506040513d601f19601f82011682018060405250810190610ca691906118ee565b6001600160a01b031614610ccd576040516337a7302b60e11b815260040160405180910390fd5b60048101545f848152600360205260409020805484919083908110610cf457610cf4611678565b5f918252602082200180546001600160a01b0319166001600160a01b039384161790556040519185169186917fe99d7b92b6dc9a0649f13e25d7695e0929b61f0e9d2e9de0741b086f9ea5cd7e91a350505050565b610d5161111e565b610d5a5f611241565b565b610d926040518060c00160405280606081526020015f81526020015f81526020015f81526020015f81526020015f151581525090565b5f82815260026020526040808220815160c08101909252805482908290610db890611777565b80601f0160208091040260200160405190810160405280929190818152602001828054610de490611777565b8015610e2f5780601f10610e0657610100808354040283529160200191610e2f565b820191905f5260205f20905b815481529060010190602001808311610e1257829003601f168201915b50505091835250506001820154602082015260028201546040820152600382015460608201526004820154608082015260059091015460ff16151560a091820152810151909150610e935760405163015f764b60e41b815260040160405180910390fd5b92915050565b5f5f610ea483611178565b5f8481526003602052604090206004820154815492935090918110610ecb57610ecb611678565b5f918252602090912001546001600160a01b03169392505050565b5f606080835f03610f0a57604051634d524fa560e01b815260040160405180910390fd5b5f610f1486611178565b5f878152600360205260409020600182015491925090610f349087611661565b815490955067ffffffffffffffff811115610f5157610f516116d1565b604051908082528060200260200182016040528015610f7a578160200160208202803683370190505b50815490945067ffffffffffffffff811115610f9857610f986116d1565b604051908082528060200260200182016040528015610fc1578160200160208202803683370190505b506004830154909350855f5b83548110156110b657838181548110610fe857610fe8611678565b5f9182526020909120015487516001600160a01b039091169088908390811061101357611013611678565b6001600160a01b03909216602092830291909101909101528083146110ae575f6127106001600160601b031685838154811061105157611051611678565b5f9182526020909120015461107690600160a01b90046001600160601b03168b611661565b611080919061168c565b90508087838151811061109557611095611678565b60209081029190910101526110aa81846116ab565b9250505b600101610fcd565b50808583815181106110ca576110ca611678565b602002602001018181525050505050509250925092565b6110e961111e565b6001600160a01b03811661111257604051631e4fbdf760e01b81525f60048201526024016103e8565b61111b81611241565b50565b5f546001600160a01b03163314610d5a5760405163118cdaa760e01b81523360048201526024016103e8565b611152611290565b60027f9b779b17422d0df92223018b32b4d1fa46e071723d6817e2486d003becc55f0055565b5f818152600260205260409020600581015460ff166111aa5760405163015f764b60e41b815260040160405180910390fd5b919050565b805f036111ba575050565b5f826001600160a01b0316826040515f6040518083038185875af1925050503d805f8114611203576040519150601f19603f3d011682016040523d82523d5f602084013e611208565b606091505b505090508061123c57604051630e21dcbb60e11b81526001600160a01b0384166004820152602481018390526044016103e8565b505050565b5f80546001600160a01b038381166001600160a01b0319831681178455604051919092169283917f8be0079c531659141344cd1fd0a4f28419497f9722a3daafe3b4186f6b6457e09190a35050565b7f9b779b17422d0df92223018b32b4d1fa46e071723d6817e2486d003becc55f0054600203610d5a57604051633ee5aeb560e01b815260040160405180910390fd5b6001600160a01b038116811461111b575f5ffd5b5f602082840312156112f6575f5ffd5b8135611301816112d2565b9392505050565b5f5f60408385031215611319575f5ffd5b50508035926020909101359150565b5f60208284031215611338575f5ffd5b5035919050565b5f8151808452602084019350602083015f5b828110156113785781516001600160a01b0316865260209586019590910190600101611351565b5093949350505050565b604081525f611394604083018561133f565b82810360208401528084518083526020830191506020860192505f5b818110156113d75783516001600160601b03168352602093840193909201916001016113b0565b50909695505050505050565b5f5f83601f8401126113f3575f5ffd5b50813567ffffffffffffffff81111561140a575f5ffd5b602083019150836020828501011115611421575f5ffd5b9250929050565b5f5f83601f840112611438575f5ffd5b50813567ffffffffffffffff81111561144f575f5ffd5b6020830191508360208260051b8501011115611421575f5ffd5b5f5f5f5f5f5f5f5f5f5f60c08b8d031215611482575f5ffd5b8a3567ffffffffffffffff811115611498575f5ffd5b6114a48d828e016113e3565b909b5099505060208b013567ffffffffffffffff8111156114c3575f5ffd5b6114cf8d828e016113e3565b90995097505060408b013567ffffffffffffffff8111156114ee575f5ffd5b6114fa8d828e01611428565b90975095505060608b013567ffffffffffffffff811115611519575f5ffd5b6115258d828e01611428565b9b9e9a9d50989b979a969995989760808101359660a09091013595509350505050565b5f5f60408385031215611559575f5ffd5b82359150602083013561156b816112d2565b809150509250929050565b602081525f825160c0602084015280518060e0850152806020830161010086015e5f6101008286010152602085015160408501526040850151606085015260608501516080850152608085015160a085015260a085015191506115dd60c085018315159052565b601f01601f191692909201610100019392505050565b838152606060208201525f61160b606083018561133f565b8281036040840152835180825260208086019201905f5b81811015611640578351835260209384019390920191600101611622565b5090979650505050505050565b634e487b7160e01b5f52601160045260245ffd5b8082028115828204841417610e9357610e9361164d565b634e487b7160e01b5f52603260045260245ffd5b5f826116a657634e487b7160e01b5f52601260045260245ffd5b500490565b81810381811115610e9357610e9361164d565b80820180821115610e9357610e9361164d565b634e487b7160e01b5f52604160045260245ffd5b5f602082840312156116f5575f5ffd5b81356001600160601b0381168114611301575f5ffd5b81835281816020850137505f828201602090810191909152601f909101601f19169091010190565b6001600160a01b03841681526040602082018190525f90611757908301848661170b565b95945050505050565b5f60208284031215611770575f5ffd5b5051919050565b600181811c9082168061178b57607f821691505b6020821081036117a957634e487b7160e01b5f52602260045260245ffd5b50919050565b601f82111561123c57805f5260205f20601f840160051c810160208510156117d45750805b601f840160051c820191505b818110156117f3575f81556001016117e0565b5050505050565b815167ffffffffffffffff811115611814576118146116d1565b611828816118228454611777565b846117af565b6020601f82116001811461185a575f83156118435750848201515b5f19600385901b1c1916600184901b1784556117f3565b5f84815260208120601f198516915b828110156118895787850151825560209485019460019092019101611869565b50848210156118a657868401515f19600387901b60f8161c191681555b50505050600190811b01905550565b606081525f6118c860608301878961170b565b82810360208401526118db81868861170b565b9150508260408301529695505050505050565b5f602082840312156118fe575f5ffd5b8151611301816112d256fea26469706673582212206d67b6af4c98d91de457b7e11000f154af74cc07d75e03cbbf83122acce5db8e64736f6c634300081c0033",
  "linkReferences": {},
  "deployedLinkReferences": {}
}