{
  "_format": "hh-sol-artifact-1",
  "contractName": "MusicRightsNFT",
  "sourceName": "contracts/MusicRightsNFT.sol",
  "abi": [
    {
      "inputs": [],
      "stateMutability": "nonpayable",
      "type": "constructor"
    },
    {
      "inputs": [
        {
          "internalType": "address",
          "name": "sender",
          "type": "address"
        },
        {
          "internalType": "uint256",
          "name": "tokenId",
          "type": "uint256"
        },
        {
          "internalType": "address",
          "name": "owner",
          "type": "address"
        }
      ],
      "name": "ERC721IncorrectOwner",
      "type": "error"
    },
    {
      "inputs": [
        {
          "internalType": "address",
          "name": "operator",
          "type": "address"
        },
        {
          "internalType": "uint256",
          "name": "tokenId",
          "type": "uint256"
        }
      ],
      "name": "ERC721InsufficientApproval",
      "type": "error"
    },
    {
      "inputs": [
        {
          "internalType": "address",
          "name": "approver",
          "type": "address"
        }
      ],
      "name": "ERC721InvalidApprover",
      "type": "error"
    },
    {
      "inputs": [
        {
          "internalType": "address",
          "name": "operator",
          "type": "address"
        }
      ],
      "name": "ERC721InvalidOperator",
      "type": "error"
    },
    {
      "inputs": [
        {
          "internalType": "address",
          "name": "owner",
          "type": "address"
        }
      ],
      "name": "ERC721InvalidOwner",
      "type": "error"
    },
    {
      "inputs": [
        {
          "internalType": "address",
          "name": "receiver",
          "type": "address"
        }
      ],
      "name": "ERC721InvalidReceiver",
      "type": "error"
    },
    {
      "inputs": [
        {
          "internalType": "address",
          "name": "sender",
          "type": "address"
        }
      ],
      "name": "ERC721InvalidSender",
      "type": "error"
    },
    {
      "inputs": [
        {
          "internalType": "uint256",
          "name": "tokenId",
          "type": "uint256"
        }
      ],
      "name": "ERC721NonexistentToken",
      "type": "error"
    },
    {
      "inputs": [],
      "name": "NotRoyaltyManager",
      "type": "error"
    },
    {
      "inputs": [
        {
          "internalType": "address",
          "name": "owner",
          "type": "address"
        }
      ],
      "name": "OwnableInvalidOwner",
      "type": "error"
    },
    {
      "inputs": [
        {
          "internalType": "address",
          "name": "account",
          "type": "address"
        }
      ],
      "name": "OwnableUnauthorizedAccount",
      "type": "error"
    },
    {
      "inputs": [],
      "name": "ZeroAddress",
      "type": "error"
    },
    {
      "anonymous": false,
      "inputs": [
        {
          "indexed": true,
          "internalType": "address",
          "name": "owner",
          "type": "address"
        },
        {
          "indexed": true,
          "internalType": "address",
          "name": "approved",
          "type": "address"
        },
        {
          "indexed": true,
          "internalType": "uint256",
          "name": "tokenId",
          "type": "uint256"
        }
      ],
      "name": "Approval",
      "type": "event"
    },
    {
      "anonymous": false,
      "inputs": [
        {
          "indexed": true,
          "internalType": "address",
          "name": "owner",
          "type": "address"
        },
        {
          "indexed": true,
          "internalType": "address",
          "name": "operator",
          "type": "address"
        },
        {
          "indexed": false,
          "internalType": "bool",
          "name": "approved",
          "type": "bool"
        }
      ],
      "name": "ApprovalForAll",
      "type": "event"
    },
    {
      "anonymous": false,
      "inputs": [
        {
          "indexed": false,
          "internalType": "uint256",
          "name": "_fromTokenId",
          "type": "uint256"
        },
        {
          "indexed": false,
          "internalType": "uint256",
          "name": "_toTokenId",
          "type": "uint256"
        }
      ],
      "name": "BatchMetadataUpdate",
      "type": "event"
    },
    {
      "anonymous": false,
      "inputs": [
        {
          "indexed": false,
          "internalType": "uint256",
          "name": "_tokenId",
          "type": "uint256"
        }
      ],
      "name": "MetadataUpdate",
      "type": "event"
    },
    {
      "anonymous": false,
      "inputs": [
        {
          "indexed": true,
          "internalType": "address",
          "name": "previousOwner",
          "type": "address"
        },
        {
          "indexed": true,
          "internalType": "address",
          "name": "newOwner",
          "type": "address"
        }
      ],
      "name": "OwnershipTransferred",
      "type": "event"
    },
    {
      "anonymous": false,
      "inputs": [
        {
          "indexed": true,
          "internalType": "address",
          "name": "oldManager",
          "type": "address"
        },
        {
          "indexed": true,
          "internalType": "address",
          "name": "newManager",
          "type": "address"
        }
      ],
      "name": "RoyaltyManagerUpdated",
      "type": "event"
    },
    {
      "anonymous": false,
      "inputs": [
        {
          "indexed": true,
          "internalType": "uint256",
          "name": "tokenId",
          "type": "uint256"
        },
        {
          "indexed": true,
          "internalType": "address",
          "name": "owner",
          "type": "address"
        },
        {
          "indexed": false,
          "internalType": "string",
          "name": "tokenURI",
          "type": "string"
        }
      ],
      "name": "TrackMinted",
      "type": "event"
    },
    {
      "anonymous": false,
      "inputs": [
        {
          "indexed": true,
          "internalType": "address",
          "name": "from",
          "type": "address"
        },
        {
          "indexed": true,
          "internalType": "address",
          "name": "to",
          "type": "address"
        },
        {
          "indexed": true,
          "internalType": "uint256",
          "name": "tokenId",
          "type": "uint256"
        }
      ],
      "name": "Transfer",
      "type": "event"
    },
    {
      "inputs": [
        {
          "internalType": "address",
          "name": "to",
          "type": "address"
        },
        {
          "internalType": "uint256",
          "name": "tokenId",
          "type": "uint256"
        }
      ],
      "name": "approve",
      "outputs": [],
      "stateMutability": "nonpayable",
      "type": "function"
    },
    {
      "inputs": [
        {
          "internalType": "address",
          "name": "owner",
          "type": "address"
        }
      ],
      "name": "balanceOf",
      "outputs": [
        {
          "internalType": "uint256",
          "name": "",
          "type": "uint256"
        }
      ],
      "stateMutability": "view",
      "type": "function"
    },
    {
      "inputs": [
        {
          "internalType": "uint256",
          "name": "tokenId",
          "type": "uint256"
        }
      ],
      "name": "getApproved",
      "outputs": [
        {
          "internalType": "address",
          "name": "",
          "type": "address"
        }
      ],
      "stateMutability": "view",
      "type": "function"
    },
    {
      "inputs": [
        {
          "internalType": "address",
          "name": "owner",
          "type": "address"
        },
        {
          "internalType": "address",
          "name": "operator",
          "type": "address"
        }
      ],
      "name": "isApprovedForAll",
      "outputs": [
        {
          "internalType": "bool",
          "name": "",
          "type": "bool"
        }
      ],
      "stateMutability": "view",
      "type": "function"
    },
    {
      "inputs": [
        {
          "internalType": "address",
          "name": "to",
          "type": "address"
        },
        {
          "internalType": "string",
          "name": "metadataURI",
          "type": "string"
        }
      ],
      "name": "mintTrack",
      "outputs": [
        {
          "internalType": "uint256",
          "name": "tokenId",
          "type": "uint256"
        }
      ],
      "stateMutability": "nonpayable",
      "type": "function"
    },
    {
      "inputs": [],
      "name": "name",
      "outputs": [
        {
          "internalType": "string",
          "name": "",
          "type": "string"
        }
      ],
      "stateMutability": "view",
      "type": "function"
    },
    {
      "inputs": [],
      "name": "nextTokenId",
      "outputs": [
        {
          "internalType": "uint256",
          "name": "",
          "type": "uint256"
        }
      ],
      "stateMutability": "view",
      "type": "function"
    },
    {
      "inputs": [],
      "name": "owner",
      "outputs": [
        {
          "internalType": "address",
          "name": "",
          "type": "address"
        }
      ],
      "stateMutability": "view",
      "type": "function"
    },
    {
      "inputs": [
        {
          "internalType": "uint256",
          "name": "tokenId",
          "type": "uint256"
        }
      ],
      "name": "ownerOf",
      "outputs": [
        {
          "internalType": "address",
          "name": "",
          "type": "address"
        }
      ],
      "stateMutability": "view",
      "type": "function"
    },
    {
      "inputs": [],
      "name": "renounceOwnership",
      "outputs": [],
      "stateMutability": "nonpayable",
      "type": "function"
    },
    {
      "inputs": [],
      "name": "royaltyManager",
      "outputs": [
        {
          "internalType": "address",
          "name": "",
          "type": "address"
        }
      ],
      "stateMutability": "view",
      "type": "function"
    },
    {
      "inputs": [
        {
          "internalType": "address",
          "name": "from",
          "type": "address"
        },
        {
          "internalType": "address",
          "name": "to",
          "type": "address"
        },
        {
          "internalType": "uint256",
          "name": "tokenId",
          "type": "uint256"
        }
      ],
      "name": "safeTransferFrom",
      "outputs": [],
      "stateMutability": "nonpayable",
      "type": "function"
    },
    {
      "inputs": [
        {
          "internalType": "address",
          "name": "from",
          "type": "address"
        },
        {
          "internalType": "address",
          "name": "to",
          "type": "address"
        },
        {
          "internalType": "uint256",
          "name": "tokenId",
          "type": "uint256"
        },
        {
          "internalType": "bytes",
          "name": "data",
          "type": "bytes"
        }
      ],
      "name": "safeTransferFrom",
      "outputs": [],
      "stateMutability": "nonpayable",
      "type": "function"
    },
    {
      "inputs": [
        {
          "internalType": "address",
          "name": "operator",
          "type": "address"
        },
        {
          "internalType": "bool",
          "name": "approved",
          "type": "bool"
        }
      ],
      "name": "setApprovalForAll",
      "outputs": [],
      "stateMutability": "nonpayable",
      "type": "function"
    },
    {
      "inputs": [
        {
          "internalType": "address",
          "name": "manager",
          "type": "address"
        }
      ],
      "name": "setRoyaltyManager",
      "outputs": [],
      "stateMutability": "nonpayable",
      "type": "function"
    },
    {
      "inputs": [
        {
          "internalType": "bytes4",
          "name": "interfaceId",
          "type": "bytes4"
        }
      ],
      "name": "supportsInterface",
      "outputs": [
        {
          "internalType": "bool",
          "name": "",
          "type": "bool"
        }
      ],
      "stateMutability": "view",
      "type": "function"
    },
    {
      "inputs": [],
      "name": "symbol",
      "outputs": [
        {
          "internalType": "string",
          "name": "",
          "type": "string"
        }
      ],
      "stateMutability": "view",
      "type": "function"
    },
    {
      "inputs": [
        {
          "internalType": "uint256",
          "name": "tokenId",
          "type": "uint256"
        }
      ],
      "name": "tokenURI",
      "outputs": [
        {
          "internalType": "string",
          "name": "",
          "type": "string"
        }
      ],
      "stateMutability": "view",
      "type": "function"
    },
    {
      "inputs": [
        {
          "internalType": "address",
          "name": "from",
          "type": "address"
        },
        {
          "internalType": "address",
          "name": "to",
          "type": "address"
        },
        {
          "internalType": "uint256",
          "name": "tokenId",
          "type": "uint256"
        }
      ],
      "name": "transferFrom",
      "outputs": [],
      "stateMutability": "nonpayable",
      "type": "function"
    },
    {
      "inputs": [
        {
          "internalType": "address",
          "name": "newOwner",
          "type": "address"
        }
      ],
      "name": "transferOwnership",
      "outputs": [],
      "stateMutability": "nonpayable",
      "type": "function"
    }
  ],
  "bytecode": "0x608060405234801561000f575f5ffd5b50336040518060400160405280601081526020016f135d5cda58c8149a59da1d1cc813919560821b815250604051806040016040528060078152602001664d52494748545360c81b815250815f9081610068919061019d565b506001610075828261019d565b5050506001600160a01b0381166100a557604051631e4fbdf760e01b81525f600482015260240160405180910390fd5b6100ae816100b4565b50610257565b600780546001600160a01b038381166001600160a01b0319831681179093556040519116919082907f8be0079c531659141344cd1fd0a4f28419497f9722a3daafe3b4186f6b6457e0905f90a35050565b634e487b7160e01b5f52604160045260245ffd5b600181811c9082168061012d57607f821691505b60208210810361014b57634e487b7160e01b5f52602260045260245ffd5b50919050565b601f82111561019857805f5260205f20601f840160051c810160208510156101765750805b601f840160051c820191505b81811015610195575f8155600101610182565b50505b505050565b81516001600160401b038111156101b6576101b6610105565b6101ca816101c48454610119565b84610151565b6020601f8211600181146101fc575f83156101e55750848201515b5f19600385901b1c1916600184901b178455610195565b5f84815260208120601f198516915b8281101561022b578785015182556020948501946001909201910161020b565b508482101561024857868401515f19600387901b60f8161c191681555b50505050600190811b01905550565b6115df806102645f395ff3fe608060405234801561000f575f5ffd5b5060043610610127575f3560e01c806375794a3c116100a9578063b88d4fde1161006e578063b88d4fde14610264578063c87b56dd14610277578063e985e9c51461028a578063ee295d621461029d578063f2fde38b146102b0575f5ffd5b806375794a3c1461021d5780638269be04146102255780638da5cb5b1461023857806395d89b4114610249578063a22cb46514610251575f5ffd5b806342842e0e116100ef57806342842e0e146101bb57806350cf5a31146101ce5780636352211e146101e157806370a08231146101f4578063715018a614610215575f5ffd5b806301ffc9a71461012b57806306fdde0314610153578063081812fc14610168578063095ea7b31461019357806323b872dd146101a8575b5f5ffd5b61013e6101393660046110a2565b6102c3565b60405190151581526020015b60405180910390f35b61015b6102d3565b60405161014a91906110eb565b61017b6101763660046110fd565b610362565b6040516001600160a01b03909116815260200161014a565b6101a66101a136600461112f565b610389565b005b6101a66101b6366004611157565b610398565b6101a66101c9366004611157565b610426565b6101a66101dc366004611191565b610445565b61017b6101ef3660046110fd565b6104c5565b610207610202366004611191565b6104cf565b60405190815260200161014a565b6101a6610514565b610207610527565b6102076102333660046111aa565b61053c565b6007546001600160a01b031661017b565b61015b610639565b6101a661025f366004611228565b610648565b6101a6610272366004611275565b610653565b61015b6102853660046110fd565b61066b565b61013e610298366004611352565b6106ec565b60095461017b906001600160a01b031681565b6101a66102be366004611191565b610719565b5f6102cd82610756565b92915050565b60605f80546102e190611383565b80601f016020809104026020016040519081016040528092919081815260200182805461030d90611383565b80156103585780601f1061032f57610100808354040283529160200191610358565b820191905f5260205f20905b81548152906001019060200180831161033b57829003601f168201915b5050505050905090565b5f61036c8261077a565b505f828152600460205260409020546001600160a01b03166102cd565b6103948282336107b2565b5050565b6001600160a01b0382166103c657604051633250574960e11b81525f60048201526024015b60405180910390fd5b5f6103d28383336107bf565b9050836001600160a01b0316816001600160a01b031614610420576040516364283d7b60e01b81526001600160a01b03808616600483015260248201849052821660448201526064016103bd565b50505050565b61044083838360405180602001604052805f815250610653565b505050565b61044d6108b1565b6001600160a01b0381166104745760405163d92e233d60e01b815260040160405180910390fd5b600980546001600160a01b038381166001600160a01b0319831681179093556040519116919082907fd12971fee0c340e11117af241e4a3456a79ea5b37194644dc648522bb1452f20905f90a35050565b5f6102cd8261077a565b5f6001600160a01b0382166104f9576040516322718ad960e21b81525f60048201526024016103bd565b506001600160a01b03165f9081526003602052604090205490565b61051c6108b1565b6105255f6108de565b565b5f600854600161053791906113cf565b905090565b6009545f906001600160a01b0316331461056957604051630135fcb160e11b815260040160405180910390fd5b6001600160a01b0384166105905760405163d92e233d60e01b815260040160405180910390fd5b60085f815461059e906113e2565b918290555090506105af848261092f565b6105ee8184848080601f0160208091040260200160405190810160405280939291908181526020018383808284375f9201919091525061094892505050565b836001600160a01b0316817fa58a198ac85a8937afc0c399d166348133faf10c0e2182046acd812d492abc29858560405161062a9291906113fa565b60405180910390a39392505050565b6060600180546102e190611383565b610394338383610997565b61065e848484610398565b6104203385858585610a5e565b60606106768261077a565b505f61068c60408051602081019091525f815290565b90505f61069884610b86565b905081515f036106a9579392505050565b8051156106db5781816040516020016106c392919061143f565b60405160208183030381529060405292505050919050565b6106e484610c25565b949350505050565b6001600160a01b039182165f90815260056020908152604080832093909416825291909152205460ff1690565b6107216108b1565b6001600160a01b03811661074a57604051631e4fbdf760e01b81525f60048201526024016103bd565b610753816108de565b50565b5f6001600160e01b03198216632483248360e11b14806102cd57506102cd82610c96565b5f818152600260205260408120546001600160a01b0316806102cd57604051637e27328960e01b8152600481018490526024016103bd565b6104408383836001610ce5565b5f828152600260205260408120546001600160a01b03908116908316156107eb576107eb818486610de9565b6001600160a01b03811615610825576108065f855f5f610ce5565b6001600160a01b0381165f90815260036020526040902080545f190190555b6001600160a01b03851615610853576001600160a01b0385165f908152600360205260409020805460010190555b5f8481526002602052604080822080546001600160a01b0319166001600160a01b0389811691821790925591518793918516917fddf252ad1be2c89b69c2b068fc378daa952ba7f163c4a11628f55a4df523b3ef91a4949350505050565b6007546001600160a01b031633146105255760405163118cdaa760e01b81523360048201526024016103bd565b600780546001600160a01b038381166001600160a01b0319831681179093556040519116919082907f8be0079c531659141344cd1fd0a4f28419497f9722a3daafe3b4186f6b6457e0905f90a35050565b610394828260405180602001604052805f815250610e4d565b5f82815260066020526040902061095f8282611497565b506040518281527ff8e1a15aba9398e019f0b49df1a4fde98ee17ae345cb5f6b5e2c27f5033e8ce79060200160405180910390a15050565b6001600160a01b0383166109c05760405163a9fbf51f60e01b81525f60048201526024016103bd565b6001600160a01b0382166109f257604051630b61174360e31b81526001600160a01b03831660048201526024016103bd565b6001600160a01b038381165f81815260056020908152604080832094871680845294825291829020805460ff191686151590811790915591519182527f17307eab39ab6107e8899845ad3d59bd9653f200f220920489ca2b5937696c31910160405180910390a3505050565b6001600160a01b0383163b15610b7f57604051630a85bd0160e11b81526001600160a01b0384169063150b7a0290610aa0908890889087908790600401611552565b6020604051808303815f875af1925050508015610ada575060408051601f3d908101601f19168201909252610ad79181019061158e565b60015b610b41573d808015610b07576040519150601f19603f3d011682016040523d82523d5f602084013e610b0c565b606091505b5080515f03610b3957604051633250574960e11b81526001600160a01b03851660048201526024016103bd565b805160208201fd5b6001600160e01b03198116630a85bd0160e11b14610b7d57604051633250574960e11b81526001600160a01b03851660048201526024016103bd565b505b5050505050565b5f818152600660205260409020805460609190610ba290611383565b80601f0160208091040260200160405190810160405280929190818152602001828054610bce90611383565b8015610c195780601f10610bf057610100808354040283529160200191610c19565b820191905f5260205f20905b815481529060010190602001808311610bfc57829003601f168201915b50505050509050919050565b6060610c308261077a565b505f610c4660408051602081019091525f815290565b90505f815111610c645760405180602001604052805f815250610c8f565b80610c6e84610e64565b604051602001610c7f92919061143f565b6040516020818303038152906040525b9392505050565b5f6001600160e01b031982166380ac58cd60e01b1480610cc657506001600160e01b03198216635b5e139f60e01b145b806102cd57506301ffc9a760e01b6001600160e01b03198316146102cd565b8080610cf957506001600160a01b03821615155b15610dba575f610d088461077a565b90506001600160a01b03831615801590610d345750826001600160a01b0316816001600160a01b031614155b8015610d475750610d4581846106ec565b155b15610d705760405163a9fbf51f60e01b81526001600160a01b03841660048201526024016103bd565b8115610db85783856001600160a01b0316826001600160a01b03167f8c5be1e5ebec7d5bd14f71427d1e84f3dd0314c0f7b2291e5b200ac8c7c3b92560405160405180910390a45b505b50505f90815260046020526040902080546001600160a01b0319166001600160a01b0392909216919091179055565b610df4838383610ef4565b610440576001600160a01b038316610e2257604051637e27328960e01b8152600481018290526024016103bd565b60405163177e802f60e01b81526001600160a01b0383166004820152602481018290526044016103bd565b610e578383610f55565b610440335f858585610a5e565b60605f610e7083610fb6565b60010190505f8167ffffffffffffffff811115610e8f57610e8f611261565b6040519080825280601f01601f191660200182016040528015610eb9576020820181803683370190505b5090508181016020015b5f19016f181899199a1a9b1b9c1cb0b131b232b360811b600a86061a8153600a8504945084610ec357509392505050565b5f6001600160a01b038316158015906106e45750826001600160a01b0316846001600160a01b03161480610f2d5750610f2d84846106ec565b806106e45750505f908152600460205260409020546001600160a01b03908116911614919050565b6001600160a01b038216610f7e57604051633250574960e11b81525f60048201526024016103bd565b5f610f8a83835f6107bf565b90506001600160a01b03811615610440576040516339e3563760e11b81525f60048201526024016103bd565b5f8072184f03e93ff9f4daa797ed6e38ed64bf6a1f0160401b8310610ff45772184f03e93ff9f4daa797ed6e38ed64bf6a1f0160401b830492506040015b6d04ee2d6d415b85acef81000000008310611020576d04ee2d6d415b85acef8100000000830492506020015b662386f26fc10000831061103e57662386f26fc10000830492506010015b6305f5e1008310611056576305f5e100830492506008015b612710831061106a57612710830492506004015b6064831061107c576064830492506002015b600a83106102cd5760010192915050565b6001600160e01b031981168114610753575f5ffd5b5f602082840312156110b2575f5ffd5b8135610c8f8161108d565b5f81518084528060208401602086015e5f602082860101526020601f19601f83011685010191505092915050565b602081525f610c8f60208301846110bd565b5f6020828403121561110d575f5ffd5b5035919050565b80356001600160a01b038116811461112a575f5ffd5b919050565b5f5f60408385031215611140575f5ffd5b61114983611114565b946020939093013593505050565b5f5f5f60608486031215611169575f5ffd5b61117284611114565b925061118060208501611114565b929592945050506040919091013590565b5f602082840312156111a1575f5ffd5b610c8f82611114565b5f5f5f604084860312156111bc575f5ffd5b6111c584611114565b9250602084013567ffffffffffffffff8111156111e0575f5ffd5b8401601f810186136111f0575f5ffd5b803567ffffffffffffffff811115611206575f5ffd5b866020828401011115611217575f5ffd5b939660209190910195509293505050565b5f5f60408385031215611239575f5ffd5b61124283611114565b915060208301358015158114611256575f5ffd5b809150509250929050565b634e487b7160e01b5f52604160045260245ffd5b5f5f5f5f60808587031215611288575f5ffd5b61129185611114565b935061129f60208601611114565b925060408501359150606085013567ffffffffffffffff8111156112c1575f5ffd5b8501601f810187136112d1575f5ffd5b803567ffffffffffffffff8111156112eb576112eb611261565b604051601f8201601f19908116603f0116810167ffffffffffffffff8111828210171561131a5761131a611261565b604052818152828201602001891015611331575f5ffd5b816020840160208301375f6020838301015280935050505092959194509250565b5f5f60408385031215611363575f5ffd5b61136c83611114565b915061137a60208401611114565b90509250929050565b600181811c9082168061139757607f821691505b6020821081036113b557634e487b7160e01b5f52602260045260245ffd5b50919050565b634e487b7160e01b5f52601160045260245ffd5b808201808211156102cd576102cd6113bb565b5f600182016113f3576113f36113bb565b5060010190565b60208152816020820152818360408301375f818301604090810191909152601f909201601f19160101919050565b5f81518060208401855e5f93019283525090919050565b5f6106e461144d8386611428565b84611428565b601f82111561044057805f5260205f20601f840160051c810160208510156114785750805b601f840160051c820191505b81811015610b7f575f8155600101611484565b815167ffffffffffffffff8111156114b1576114b1611261565b6114c5816114bf8454611383565b84611453565b6020601f8211600181146114f7575f83156114e05750848201515b5f19600385901b1c1916600184901b178455610b7f565b5f84815260208120601f198516915b828110156115265787850151825560209485019460019092019101611506565b508482101561154357868401515f19600387901b60f8161c191681555b50505050600190811b01905550565b6001600160a01b03858116825284166020820152604081018390526080606082018190525f90611584908301846110bd565b9695505050505050565b5f6020828403121561159e575f5ffd5b8151610c8f8161108d56fea2646970667358221220e2496a3cd2a8a663bc851b085d9eba38fb98273f79baf937a3b3f5eef101bd9664736f6c634300081c0033",
  "linkReferences": {},
  "deployedLinkReferences": {}
}