{"contracts/RightsAuction.sol":{"RightsAuction":{"abi":[{"inputs":[{"internalType":"address","name":"musicRightsNftAddress","type":"address"},{"internalType":"address","name":"royaltyManagerAddress","type":"address"}],"stateMutability":"nonpayable","type":"constructor"},{"inputs":[],"name":"AuctionAlreadyActive","type":"error"},{"inputs":[],"name":"AuctionEnded","type":"error"},{"inputs":[],"name":"AuctionHasBids","type":"error"},{"inputs":[],"name":"AuctionNotActive","type":"error"},{"inputs":[],"name":"AuctionStillRunning","type":"error"},{"inputs":[{"internalType":"uint256","name":"requiredMinBid","type":"uint256"}],"name":"BidTooLow","type":"error"},{"inputs":[],"name":"InvalidBid","type":"error"},{"inputs":[],"name":"InvalidDuration","type":"error"},{"inputs":[],"name":"NotSeller","type":"error"},{"inputs":[],"name":"NothingToWithdraw","type":"error"},{"inputs":[],"name":"ReentrancyGuardReentrantCall","type":"error"},{"inputs":[{"internalType":"address","name":"recipient","type":"address"},{"internalType":"uint256","name":"amount","type":"uint256"}],"name":"TransferFailed","type":"error"},{"anonymous":false,"inputs":[{"indexed":true,"internalType":"uint256","name":"tokenId","type":"uint256"},{"indexed":true,"internalType":"address","name":"seller","type":"address"}],"name":"AuctionCancelled","type":"event"},{"anonymous":false,"inputs":[{"indexed":true,"internalType":"uint256","name":"tokenId","type":"uint256"},{"indexed":true,"internalType":"address","name":"seller","type":"address"},{"indexed":false,"internalType":"uint256","name":"minBidWei","type":"uint256"},{"indexed":false,"internalType":"uint256","name":"endTime","type":"uint256"}],"name":"AuctionCreated","type":"event"},{"anonymous":false,"inputs":[{"indexed":true,"internalType":"uint256","name":"tokenId","type":"uint256"},{"indexed":true,"internalType":"address","name":"seller","type":"address"},{"indexed":true,"internalType":"address","name":"winner","type":"address"},{"indexed":false,"internalType":"uint256","name":"finalBidWei","type":"uint256"}],"name":"AuctionFinalized","type":"event"},{"anonymous":false,"inputs":[{"indexed":true,"internalType":"uint256","name":"tokenId","type":"uint256"},{"indexed":true,"internalType":"address","name":"bidder","type":"address"},{"indexed":false,"internalType":"uint256","name":"bidWei","type":"uint256"}],"name":"BidPlaced","type":"event"},{"anonymous":false,"inputs":[{"indexed":true,"internalType":"address","name":"bidder","type":"address"},{"indexed":false,"internalType":"uint256","name":"amountWei","type":"uint256"}],"name":"BidRefunded","type":"event"},{"inputs":[{"internalType":"uint256","name":"","type":"uint256"}],"name":"auctions","outputs":[{"internalType":"address","name":"seller","type":"address"},{"internalType":"uint256","name":"minBidWei","type":"uint256"},{"internalType":"uint256","name":"endTime","type":"uint256"},{"internalType":"address","name":"highestBidder","type":"address"},{"internalType":"uint256","name":"highestBidWei","type":"uint256"},{"internalType":"bool","name":"active","type":"bool"}],"stateMutability":"view","type":"function"},{"inputs":[{"internalType":"uint256","name":"tokenId","type":"uint256"}],"name":"cancelAuction","outputs":[],"stateMutability":"nonpayable","type":"function"},{"inputs":[{"internalType":"uint256","name":"tokenId","type":"uint256"},{"internalType":"uint256","name":"minBidWei","type":"uint256"},{"internalType":"uint256","name":"durationSeconds","type":"uint256"}],"name":"createAuction","outputs":[],"stateMutability":"nonpayable","type":"function"},{"inputs":[{"internalType":"uint256","name":"tokenId","type":"uint256"}],"name":"finalizeAuction","outputs":[],"stateMutability":"nonpayable","type":"function"},{"inputs":[{"internalType":"uint256","name":"tokenId","type":"uint256"}],"name":"getAuction","outputs":[{"components":[{"internalType":"address","name":"seller","type":"address"},{"internalType":"uint256","name":"minBidWei","type":"uint256"},{"internalType":"uint256","name":"endTime","type":"uint256"},{"internalType":"address","name":"highestBidder","type":"address"},{"internalType":"uint256","name":"highestBidWei","type":"uint256"},{"internalType":"bool","name":"active","type":"bool"}],"internalType":"struct RightsAuction.Auction","name":"","type":"tuple"}],"stateMutability":"view","type":"function"},{"inputs":[],"name":"musicRightsNFT","outputs":[{"internalType":"contract IERC721","name":"","type":"address"}],"stateMutability":"view","type":"function"},{"inputs":[{"internalType":"address","name":"","type":"address"},{"internalType":"address","name":"","type":"address"},{"internalType":"uint256","name":"","type":"uint256"},{"internalType":"bytes","name":"","type":"bytes"}],"name":"onERC721Received","outputs":[{"internalType":"bytes4","name":"","type":"bytes4"}],"stateMutability":"pure","type":"function"},{"inputs":[{"internalType":"address","name":"","type":"address"}],"name":"pendingReturns","outputs":[{"internalType":"uint256","name":"","type":"uint256"}],"stateMutability":"view","type":"function"},{"inputs":[{"internalType":"uint256","name":"tokenId","type":"uint256"}],"name":"placeBid","outputs":[],"stateMutability":"payable","type":"function"},{"inputs":[],"name":"royaltyManager","outputs":[{"internalType":"contract RoyaltyManager","name":"","type":"address"}],"stateMutability":"view","type":"function"},{"inputs":[],"name":"withdrawRefund","outputs":[],"stateMutability":"nonpayable","type":"function"}],"evm":{"bytecode":{"linkReferences":{},"object":"60c060405234801561000f575f5ffd5b506040516110a73803806110a783398101604081905261002e916100bf565b60017f9b779b17422d0df92223018b32b4d1fa46e071723d6817e2486d003becc55f00556001600160a01b038216158061006f57506001600160a01b038116155b1561008d5760405163c6388ef760e01b815260040160405180910390fd5b6001600160a01b039182166080521660a0526100f0565b80516001600160a01b03811681146100ba575f5ffd5b919050565b5f5f604083850312156100d0575f5ffd5b6100d9836100a4565b91506100e7602084016100a4565b90509250929050565b60805160a051610f6c61013b5f395f81816103a70152610bf401525f81816102ec01528181610515015281816107b90152818161094001528181610a940152610b620152610f6c5ff3fe60806040526004361061009a575f3560e01c8063908e107311610062578063908e1073146102db57806396b5a755146103265780639979ef4514610345578063cda4beef14610358578063e808386314610377578063ee295d6214610396575f5ffd5b8063110f88741461009e578063150b7a02146100b457806326b387bb146100fd578063571a26a01461013657806378bd7935146101d2575b5f5ffd5b3480156100a9575f5ffd5b506100b26103c9565b005b3480156100bf575f5ffd5b506100df6100ce366004610db7565b630a85bd0160e11b95945050505050565b6040516001600160e01b031990911681526020015b60405180910390f35b348015610108575f5ffd5b50610128610117366004610e50565b60016020525f908152604090205481565b6040519081526020016100f4565b348015610141575f5ffd5b50610194610150366004610e72565b5f602081905290815260409020805460018201546002830154600384015460048501546005909501546001600160a01b039485169593949293919092169160ff1686565b604080516001600160a01b039788168152602081019690965285019390935293166060830152608082019290925290151560a082015260c0016100f4565b3480156101dd575f5ffd5b506102846101ec366004610e72565b6040805160c0810182525f80825260208201819052918101829052606081018290526080810182905260a0810191909152505f9081526020818152604091829020825160c08101845281546001600160a01b03908116825260018301549382019390935260028201549381019390935260038101549091166060830152600481015460808301526005015460ff16151560a082015290565b6040516100f4919081516001600160a01b0390811682526020808401519083015260408084015190830152606080840151909116908201526080808301519082015260a09182015115159181019190915260c00190565b3480156102e6575f5ffd5b5061030e7f000000000000000000000000000000000000000000000000000000000000000081565b6040516001600160a01b0390911681526020016100f4565b348015610331575f5ffd5b506100b2610340366004610e72565b610468565b6100b2610353366004610e72565b6105b8565b348015610363575f5ffd5b506100b2610372366004610e89565b610726565b348015610382575f5ffd5b506100b2610391366004610e72565b6109ff565b3480156103a1575f5ffd5b5061030e7f000000000000000000000000000000000000000000000000000000000000000081565b6103d1610cd2565b335f908152600160205260408120549081900361040157604051630686827b60e51b815260040160405180910390fd5b335f8181526001602052604081205561041a9082610ced565b60405181815233907f8377883650d2137d6e6d67bcf2dbb9b1dab287d68240a17ff910b9fb7a0ad5ff9060200160405180910390a25061046660015f516020610f175f395f51905f5255565b565b5f818152602081905260409020600581015460ff1661049a576040516334dc687f60e11b815260040160405180910390fd5b80546001600160a01b031633146104c457604051635ec8235160e01b815260040160405180910390fd5b60038101546001600160a01b0316156104f0576040516335473acb60e01b815260040160405180910390fd5b60058101805460ff191690558054604051632142170760e11b81526001600160a01b037f00000000000000000000000000000000000000000000000000000000000000008116926342842e0e9261054f92309216908790600401610eb2565b5f604051808303815f87803b158015610566575f5ffd5b505af1158015610578573d5f5f3e3d5ffd5b505082546040516001600160a01b0390911692508491507f10ac9f0bb365b5d22d7bec500408692f23fdf83eadfec71615ef88b4c1134f0e905f90a35050565b6105c0610cd2565b5f818152602081905260409020600581015460ff166105f2576040516334dc687f60e11b815260040160405180910390fd5b806002015442106106165760405163283a4a6160e21b815260040160405180910390fd5b5f81600401545f14610637576004820154610632906001610ed6565b61063d565b81600101545b905080341015610668576040516331173c6560e01b8152600481018290526024015b60405180910390fd5b60038201546001600160a01b0316156106b157600482015460038301546001600160a01b03165f90815260016020526040812080549091906106ab908490610ed6565b90915550505b6003820180546001600160a01b03191633908117909155346004840181905560405185917f0e54eff26401bf69b81b26f60bd85ef47f5d85275c1d268d84f68d6897431c479161070391815260200190565b60405180910390a3505061072360015f516020610f175f395f51905f5255565b50565b815f036107465760405163c6388ef760e01b815260040160405180910390fd5b805f0361076657604051637616640160e01b815260040160405180910390fd5b5f838152602081905260409020600581015460ff161561079957604051634e75f0b560e11b815260040160405180910390fd5b6040516331a9108f60e11b81526004810185905233906001600160a01b037f00000000000000000000000000000000000000000000000000000000000000001690636352211e90602401602060405180830381865afa1580156107fe573d5f5f3e3d5ffd5b505050506040513d601f19601f820116820180604052508101906108229190610efb565b6001600160a01b03161461084957604051635ec8235160e01b815260040160405180910390fd5b5f6108548342610ed6565b90506040518060c00160405280336001600160a01b031681526020018581526020018281526020015f6001600160a01b031681526020015f8152602001600115158152505f5f8781526020019081526020015f205f820151815f015f6101000a8154816001600160a01b0302191690836001600160a01b0316021790555060208201518160010155604082015181600201556060820151816003015f6101000a8154816001600160a01b0302191690836001600160a01b031602179055506080820151816004015560a0820151816005015f6101000a81548160ff0219169083151502179055509050507f00000000000000000000000000000000000000000000000000000000000000006001600160a01b03166342842e0e3330886040518463ffffffff1660e01b815260040161098e93929190610eb2565b5f604051808303815f87803b1580156109a5575f5ffd5b505af11580156109b7573d5f5f3e3d5ffd5b505060408051878152602081018590523393508892507fc9050d42180a61cb0d9ebb8ad118b62fe6eab12cf12ff752c4a0cc7da9ddf627910160405180910390a35050505050565b610a07610cd2565b5f818152602081905260409020600581015460ff16610a39576040516334dc687f60e11b815260040160405180910390fd5b8060020154421015610a5d576040516203de7160e81b815260040160405180910390fd5b60058101805460ff1916905560038101546001600160a01b0316610b46578054604051632142170760e11b81526001600160a01b037f00000000000000000000000000000000000000000000000000000000000000008116926342842e0e92610ace92309216908790600401610eb2565b5f604051808303815f87803b158015610ae5575f5ffd5b505af1158015610af7573d5f5f3e3d5ffd5b505082546040515f80825293506001600160a01b03909116915084907f248b3e7715901cde8605780ccb8b9208d44cb7d923fc3de487406ea74cff6acf9060200160405180910390a450610cbc565b6003810154604051632142170760e11b81526001600160a01b037f00000000000000000000000000000000000000000000000000000000000000008116926342842e0e92610b9c92309216908790600401610eb2565b5f604051808303815f87803b158015610bb3575f5ffd5b505af1158015610bc5573d5f5f3e3d5ffd5b505050506003810154604051636a89170360e01b8152600481018490526001600160a01b0391821660248201527f000000000000000000000000000000000000000000000000000000000000000090911690636a891703906044015f604051808303815f87803b158015610c37575f5ffd5b505af1158015610c49573d5f5f3e3d5ffd5b505082546004840154610c6993506001600160a01b039091169150610ced565b6003810154815460048301546040519081526001600160a01b03928316929091169084907f248b3e7715901cde8605780ccb8b9208d44cb7d923fc3de487406ea74cff6acf9060200160405180910390a4505b61072360015f516020610f175f395f51905f5255565b610cda610d74565b60025f516020610f175f395f51905f5255565b5f826001600160a01b0316826040515f6040518083038185875af1925050503d805f8114610d36576040519150601f19603f3d011682016040523d82523d5f602084013e610d3b565b606091505b5050905080610d6f57604051630e21dcbb60e11b81526001600160a01b03841660048201526024810183905260440161065f565b505050565b5f516020610f175f395f51905f525460020361046657604051633ee5aeb560e01b815260040160405180910390fd5b6001600160a01b0381168114610723575f5ffd5b5f5f5f5f5f60808688031215610dcb575f5ffd5b8535610dd681610da3565b94506020860135610de681610da3565b935060408601359250606086013567ffffffffffffffff811115610e08575f5ffd5b8601601f81018813610e18575f5ffd5b803567ffffffffffffffff811115610e2e575f5ffd5b886020828401011115610e3f575f5ffd5b959894975092955050506020019190565b5f60208284031215610e60575f5ffd5b8135610e6b81610da3565b9392505050565b5f60208284031215610e82575f5ffd5b5035919050565b5f5f5f60608486031215610e9b575f5ffd5b505081359360208301359350604090920135919050565b6001600160a01b039384168152919092166020820152604081019190915260600190565b80820180821115610ef557634e487b7160e01b5f52601160045260245ffd5b92915050565b5f60208284031215610f0b575f5ffd5b8151610e6b81610da356fe9b779b17422d0df92223018b32b4d1fa46e071723d6817e2486d003becc55f00a2646970667358221220f0a153a2da46aeaa60b78c932a11f2a59726a29f72475a646b09c75a40d5718164736f6c634300081c0033","opcodes":"PUSH1 0xC0 PUSH1 0x40 MSTORE CALLVALUE DUP1 ISZERO PUSH2 0xF JUMPI PUSH0 PUSH0 REVERT JUMPDEST POP PUSH1 0x40 MLOAD PUSH2 0x10A7 CODESIZE SUB DUP1 PUSH2 0x10A7 DUP4 CODECOPY DUP2 ADD PUSH1 0x40 DUP2 SWAP1 MSTORE PUSH2 0x2E SWAP2 PUSH2 0xBF JUMP JUMPDEST PUSH1 0x1 PUSH32 0x9B779B17422D0DF92223018B32B4D1FA46E071723D6817E2486D003BECC55F00 SSTORE PUSH1 0x1 PUSH1 0x1 PUSH1 0xA0 SHL SUB DUP3 AND ISZERO DUP1 PUSH2 0x6F JUMPI POP PUSH1 0x1 PUSH1 0x1 PUSH1 0xA0 SHL SUB DUP2 AND ISZERO JUMPDEST ISZERO PUSH2 0x8D JUMPI PUSH1 0x40 MLOAD PUSH4 0xC6388EF7 PUSH1 0xE0 SHL DUP2 MSTORE PUSH1 0x4 ADD PUSH1 0x40 MLOAD DUP1 SWAP2 SUB SWAP1 REVERT JUMPDEST PUSH1 0x1 PUSH1 0x1 PUSH1 0xA0 SHL SUB SWAP2 DUP3 AND PUSH1 0x80 MSTORE AND PUSH1 0xA0 MSTORE PUSH2 0xF0 JUMP JUMPDEST DUP1 MLOAD PUSH1 0x1 PUSH1 0x1 PUSH1 0xA0 SHL SUB DUP2 AND DUP2 EQ PUSH2 0xBA JUMPI PUSH0 PUSH0 REVERT JUMPDEST SWAP2 SWAP1 POP JUMP JUMPDEST PUSH0 PUSH0 PUSH1 0x40 DUP4 DUP6 SUB SLT ISZERO PUSH2 0xD0 JUMPI PUSH0 PUSH0 REVERT JUMPDEST PUSH2 0xD9 DUP4 PUSH2 0xA4 JUMP JUMPDEST SWAP2 POP PUSH2 0xE7 PUSH1 0x20 DUP5 ADD PUSH2 0xA4 JUMP JUMPDEST SWAP1 POP SWAP3 POP SWAP3 SWAP1 POP JUMP JUMPDEST PUSH1 0x80 MLOAD PUSH1 0xA0 MLOAD PUSH2 0xF6C PUSH2 0x13B PUSH0 CODECOPY PUSH0 DUP2 DUP2 PUSH2 0x3A7 ADD MSTORE PUSH2 0xBF4 ADD MSTORE PUSH0 DUP2 DUP2 PUSH2 0x2EC ADD MSTORE DUP2 DUP2 PUSH2 0x515 ADD MSTORE DUP2 DUP2 PUSH2 0x7B9 ADD MSTORE DUP2 DUP2 PUSH2 0x940 ADD MSTORE DUP2 DUP2 PUSH2 0xA94 ADD MSTORE PUSH2 0xB62 ADD MSTORE PUSH2 0xF6C PUSH0 RETURN INVALID PUSH1 0x80 PUSH1 0x40 MSTORE PUSH1 0x4 CALLDATASIZE LT PUSH2 0x9A JUMPI PUSH0 CALLDATALOAD PUSH1 0xE0 SHR DUP1 PUSH4 0x908E1073 GT PUSH2 0x62 JUMPI DUP1 PUSH4 0x908E1073 EQ PUSH2 0x2DB JUMPI DUP1 PUSH4 0x96B5A755 EQ PUSH2 0x326 JUMPI DUP1 PUSH4 0x9979EF45 EQ PUSH2 0x345 JUMPI DUP1 PUSH4 0xCDA4BEEF EQ PUSH2 0x358 JUMPI DUP1 PUSH4 0xE8083863 EQ PUSH2 0x377 JUMPI DUP1 PUSH4 0xEE295D62 EQ PUSH2 0x396 JUMPI PUSH0 PUSH0 REVERT JUMPDEST DUP1 PUSH4 0x110F8874 EQ PUSH2 0x9E JUMPI DUP1 PUSH4 0x150B7A02 EQ PUSH2 0xB4 JUMPI DUP1 PUSH4 0x26B387BB EQ PUSH2 0xFD JUMPI DUP1 PUSH4 0x571A26A0 EQ PUSH2 0x136 JUMPI DUP1 PUSH4 0x78BD7935 EQ PUSH2 0x1D2 JUMPI JUMPDEST PUSH0 PUSH0 REVERT JUMPDEST CALLVALUE DUP1 ISZERO PUSH2 0xA9 JUMPI PUSH0 PUSH0 REVERT JUMPDEST POP PUSH2 0xB2 PUSH2 0x3C9 JUMP JUMPDEST STOP JUMPDEST CALLVALUE DUP1 ISZERO PUSH2 0xBF JUMPI PUSH0 PUSH0 REVERT JUMPDEST POP PUSH2 0xDF PUSH2 0xCE CALLDATASIZE PUSH1 0x4 PUSH2 0xDB7 JUMP JUMPDEST PUSH4 0xA85BD01 PUSH1 0xE1 SHL SWAP6 SWAP5 POP POP POP POP POP JUMP JUMPDEST PUSH1 0x40 MLOAD PUSH1 0x1 PUSH1 0x1 PUSH1 0xE0 SHL SUB NOT SWAP1 SWAP2 AND DUP2 MSTORE PUSH1 0x20 ADD JUMPDEST PUSH1 0x40 MLOAD DUP1 SWAP2 SUB SWAP1 RETURN JUMPDEST CALLVALUE DUP1 ISZERO PUSH2 0x108 JUMPI PUSH0 PUSH0 REVERT JUMPDEST POP PUSH2 0x128 PUSH2 0x117 CALLDATASIZE PUSH1 0x4 PUSH2 0xE50 JUMP JUMPDEST PUSH1 0x1 PUSH1 0x20 MSTORE PUSH0 SWAP1 DUP2 MSTORE PUSH1 0x40 SWAP1 KECCAK256 SLOAD DUP2 JUMP JUMPDEST PUSH1 0x40 MLOAD SWAP1 DUP2 MSTORE PUSH1 0x20 ADD PUSH2 0xF4 JUMP JUMPDEST CALLVALUE DUP1 ISZERO PUSH2 0x141 JUMPI PUSH0 PUSH0 REVERT JUMPDEST POP PUSH2 0x194 PUSH2 0x150 CALLDATASIZE PUSH1 0x4 PUSH2 0xE72 JUMP JUMPDEST PUSH0 PUSH1 0x20 DUP2 SWAP1 MSTORE SWAP1 DUP2 MSTORE PUSH1 0x40 SWAP1 KECCAK256 DUP1 SLOAD PUSH1 0x1 DUP3 ADD SLOAD PUSH1 0x2 DUP4 ADD SLOAD PUSH1 0x3 DUP5 ADD SLOAD PUSH1 0x4 DUP6 ADD SLOAD PUSH1 0x5 SWAP1 SWAP6 ADD SLOAD PUSH1 0x1 PUSH1 0x1 PUSH1 0xA0 SHL SUB SWAP5 DUP6 AND SWAP6 SWAP4 SWAP5 SWAP3 SWAP4 SWAP2 SWAP1 SWAP3 AND SWAP2 PUSH1 0xFF AND DUP7 JUMP JUMPDEST PUSH1 0x40 DUP1 MLOAD PUSH1 0x1 PUSH1 0x1 PUSH1 0xA0 SHL SUB SWAP8 DUP9 AND DUP2 MSTORE PUSH1 0x20 DUP2 ADD SWAP7 SWAP1 SWAP7 MSTORE DUP6 ADD SWAP4 SWAP1 SWAP4 MSTORE SWAP4 AND PUSH1 0x60 DUP4 ADD MSTORE PUSH1 0x80 DUP3 ADD SWAP3 SWAP1 SWAP3 MSTORE SWAP1 ISZERO ISZERO PUSH1 0xA0 DUP3 ADD MSTORE PUSH1 0xC0 ADD PUSH2 0xF4 JUMP JUMPDEST CALLVALUE DUP1 ISZERO PUSH2 0x1DD JUMPI PUSH0 PUSH0 REVERT JUMPDEST POP PUSH2 0x284 PUSH2 0x1EC CALLDATASIZE PUSH1 0x4 PUSH2 0xE72 JUMP JUMPDEST PUSH1 0x40 DUP1 MLOAD PUSH1 0xC0 DUP2 ADD DUP3 MSTORE PUSH0 DUP1 DUP3 MSTORE PUSH1 0x20 DUP3 ADD DUP2 SWAP1 MSTORE SWAP2 DUP2 ADD DUP3 SWAP1 MSTORE PUSH1 0x60 DUP2 ADD DUP3 SWAP1 MSTORE PUSH1 0x80 DUP2 ADD DUP3 SWAP1 MSTORE PUSH1 0xA0 DUP2 ADD SWAP2 SWAP1 SWAP2 MSTORE POP PUSH0 SWAP1 DUP2 MSTORE PUSH1 0x20 DUP2 DUP2 MSTORE PUSH1 0x40 SWAP2 DUP3 SWAP1 KECCAK256 DUP3 MLOAD PUSH1 0xC0 DUP2 ADD DUP5 MSTORE DUP2 SLOAD PUSH1 0x1 PUSH1 0x1 PUSH1 0xA0 SHL SUB SWAP1 DUP2 AND DUP3 MSTORE PUSH1 0x1 DUP4 ADD SLOAD SWAP4 DUP3 ADD SWAP4 SWAP1 SWAP4 MSTORE PUSH1 0x2 DUP3 ADD SLOAD SWAP4 DUP2 ADD SWAP4 SWAP1 SWAP4 MSTORE PUSH1 0x3 DUP2 ADD SLOAD SWAP1 SWAP2 AND PUSH1 0x60 DUP4 ADD MSTORE PUSH1 0x4 DUP2 ADD SLOAD PUSH1 0x80 DUP4 ADD MSTORE PUSH1 0x5 ADD SLOAD PUSH1 0xFF AND ISZERO ISZERO PUSH1 0xA0 DUP3 ADD MSTORE SWAP1 JUMP JUMPDEST PUSH1 0x40 MLOAD PUSH2 0xF4 SWAP2 SWAP1 DUP2 MLOAD PUSH1 0x1 PUSH1 0x1 PUSH1 0xA0 SHL SUB SWAP1 DUP2 AND DUP3 MSTORE PUSH1 0x20 DUP1 DUP5 ADD MLOAD SWAP1 DUP4 ADD MSTORE PUSH1 0x40 DUP1 DUP5 ADD MLOAD SWAP1 DUP4 ADD MSTORE PUSH1 0x60 DUP1 DUP5 ADD MLOAD SWAP1 SWAP2 AND SWAP1 DUP3 ADD MSTORE PUSH1 0x80 DUP1 DUP4 ADD MLOAD SWAP1 DUP3 ADD MSTORE PUSH1 0xA0 SWAP2 DUP3 ADD MLOAD ISZERO ISZERO SWAP2 DUP2 ADD SWAP2 SWAP1 SWAP2 MSTORE PUSH1 0xC0 ADD SWAP1 JUMP JUMPDEST CALLVALUE DUP1 ISZERO PUSH2 0x2E6 JUMPI PUSH0 PUSH0 REVERT JUMPDEST POP PUSH2 0x30E PUSH32 0x0 DUP2 JUMP JUMPDEST PUSH1 0x40 MLOAD PUSH1 0x1 PUSH1 0x1 PUSH1 0xA0 SHL SUB SWAP1 SWAP2 AND DUP2 MSTORE PUSH1 0x20 ADD PUSH2 0xF4 JUMP JUMPDEST CALLVALUE DUP1 ISZERO PUSH2 0x331 JUMPI PUSH0 PUSH0 REVERT JUMPDEST POP PUSH2 0xB2 PUSH2 0x340 CALLDATASIZE PUSH1 0x4 PUSH2 0xE72 JUMP JUMPDEST PUSH2 0x468 JUMP JUMPDEST PUSH2 0xB2 PUSH2 0x353 CALLDATASIZE PUSH1 0x4 PUSH2 0xE72 JUMP JUMPDEST PUSH2 0x5B8 JUMP JUMPDEST CALLVALUE DUP1 ISZERO PUSH2 0x363 JUMPI PUSH0 PUSH0 REVERT JUMPDEST POP PUSH2 0xB2 PUSH2 0x372 CALLDATASIZE PUSH1 0x4 PUSH2 0xE89 JUMP JUMPDEST PUSH2 0x726 JUMP JUMPDEST CALLVALUE DUP1 ISZERO PUSH2 0x382 JUMPI PUSH0 PUSH0 REVERT JUMPDEST POP PUSH2 0xB2 PUSH2 0x391 CALLDATASIZE PUSH1 0x4 PUSH2 0xE72 JUMP JUMPDEST PUSH2 0x9FF JUMP JUMPDEST CALLVALUE DUP1 ISZERO PUSH2 0x3A1 JUMPI PUSH0 PUSH0 REVERT JUMPDEST POP PUSH2 0x30E PUSH32 0x0 DUP2 JUMP JUMPDEST PUSH2 0x3D1 PUSH2 0xCD2 JUMP JUMPDEST CALLER PUSH0 SWAP1 DUP2 MSTORE PUSH1 0x1 PUSH1 0x20 MSTORE PUSH1 0x40 DUP2 KECCAK256 SLOAD SWAP1 DUP2 SWAP1 SUB PUSH2 0x401 JUMPI PUSH1 0x40 MLOAD PUSH4 0x686827B PUSH1 0xE5 SHL DUP2 MSTORE PUSH1 0x4 ADD PUSH1 0x40 MLOAD DUP1 SWAP2 SUB SWAP1 REVERT JUMPDEST CALLER PUSH0 DUP2 DUP2 MSTORE PUSH1 0x1 PUSH1 0x20 MSTORE PUSH1 0x40 DUP2 KECCAK256 SSTORE PUSH2 0x41A SWAP1 DUP3 PUSH2 0xCED JUMP JUMPDEST PUSH1 0x40 MLOAD DUP2 DUP2 MSTORE CALLER SWAP1 PUSH32 0x8377883650D2137D6E6D67BCF2DBB9B1DAB287D68240A17FF910B9FB7A0AD5FF SWAP1 PUSH1 0x20 ADD PUSH1 0x40 MLOAD DUP1 SWAP2 SUB SWAP1 LOG2 POP PUSH2 0x466 PUSH1 0x1 PUSH0 MLOAD PUSH1 0x20 PUSH2 0xF17 PUSH0 CODECOPY PUSH0 MLOAD SWAP1 PUSH0 MSTORE SSTORE JUMP JUMPDEST JUMP JUMPDEST PUSH0 DUP2 DUP2 MSTORE PUSH1 0x20 DUP2 SWAP1 MSTORE PUSH1 0x40 SWAP1 KECCAK256 PUSH1 0x5 DUP2 ADD SLOAD PUSH1 0xFF AND PUSH2 0x49A JUMPI PUSH1 0x40 MLOAD PUSH4 0x34DC687F PUSH1 0xE1 SHL DUP2 MSTORE PUSH1 0x4 ADD PUSH1 0x40 MLOAD DUP1 SWAP2 SUB SWAP1 REVERT JUMPDEST DUP1 SLOAD PUSH1 0x1 PUSH1 0x1 PUSH1 0xA0 SHL SUB AND CALLER EQ PUSH2 0x4C4 JUMPI PUSH1 0x40 MLOAD PUSH4 0x5EC82351 PUSH1 0xE0 SHL DUP2 MSTORE PUSH1 0x4 ADD PUSH1 0x40 MLOAD DUP1 SWAP2 SUB SWAP1 REVERT JUMPDEST PUSH1 0x3 DUP2 ADD SLOAD PUSH1 0x1 PUSH1 0x1 PUSH1 0xA0 SHL SUB AND ISZERO PUSH2 0x4F0 JUMPI PUSH1 0x40 MLOAD PUSH4 0x35473ACB PUSH1 0xE0 SHL DUP2 MSTORE PUSH1 0x4 ADD PUSH1 0x40 MLOAD DUP1 SWAP2 SUB SWAP1 REVERT JUMPDEST PUSH1 0x5 DUP2 ADD DUP1 SLOAD PUSH1 0xFF NOT AND SWAP1 SSTORE DUP1 SLOAD PUSH1 0x40 MLOAD PUSH4 0x21421707 PUSH1 0xE1 SHL DUP2 MSTORE PUSH1 0x1 PUSH1 0x1 PUSH1 0xA0 SHL SUB PUSH32 0x0 DUP2 AND SWAP3 PUSH4 0x42842E0E SWAP3 PUSH2 0x54F SWAP3 ADDRESS SWAP3 AND SWAP1 DUP8 SWAP1 PUSH1 0x4 ADD PUSH2 0xEB2 JUMP JUMPDEST PUSH0 PUSH1 0x40 MLOAD DUP1 DUP4 SUB DUP2 PUSH0 DUP8 DUP1 EXTCODESIZE ISZERO DUP1 ISZERO PUSH2 0x566 JUMPI PUSH0 PUSH0 REVERT JUMPDEST POP GAS CALL ISZERO DUP1 ISZERO PUSH2 0x578 JUMPI RETURNDATASIZE PUSH0 PUSH0 RETURNDATACOPY RETURNDATASIZE PUSH0 REVERT JUMPDEST POP POP DUP3 SLOAD PUSH1 0x40 MLOAD PUSH1 0x1 PUSH1 0x1 PUSH1 0xA0 SHL SUB SWAP1 SWAP2 AND SWAP3 POP DUP5 SWAP2 POP PUSH32 0x10AC9F0BB365B5D22D7BEC500408692F23FDF83EADFEC71615EF88B4C1134F0E SWAP1 PUSH0 SWAP1 LOG3 POP POP JUMP JUMPDEST PUSH2 0x5C0 PUSH2 0xCD2 JUMP JUMPDEST PUSH0 DUP2 DUP2 MSTORE PUSH1 0x20 DUP2 SWAP1 MSTORE PUSH1 0x40 SWAP1 KECCAK256 PUSH1 0x5 DUP2 ADD SLOAD PUSH1 0xFF AND PUSH2 0x5F2 JUMPI PUSH1 0x40 MLOAD PUSH4 0x34DC687F PUSH1 0xE1 SHL DUP2 MSTORE PUSH1 0x4 ADD PUSH1 0x40 MLOAD DUP1 SWAP2 SUB SWAP1 REVERT JUMPDEST DUP1 PUSH1 0x2 ADD SLOAD TIMESTAMP LT PUSH2 0x616 JUMPI PUSH1 0x40 MLOAD PUSH4 0x283A4A61 PUSH1 0xE2 SHL DUP2 MSTORE PUSH1 0x4 ADD PUSH1 0x40 MLOAD DUP1 SWAP2 SUB SWAP1 REVERT JUMPDEST PUSH0 DUP2 PUSH1 0x4 ADD SLOAD PUSH0 EQ PUSH2 0x637 JUMPI PUSH1 0x4 DUP3 ADD SLOAD PUSH2 0x632 SWAP1 PUSH1 0x1 PUSH2 0xED6 JUMP JUMPDEST PUSH2 0x63D JUMP JUMPDEST DUP2 PUSH1 0x1 ADD SLOAD JUMPDEST SWAP1 POP DUP1 CALLVALUE LT ISZERO PUSH2 0x668 JUMPI PUSH1 0x40 MLOAD PUSH4 0x31173C65 PUSH1 0xE0 SHL DUP2 MSTORE PUSH1 0x4 DUP2 ADD DUP3 SWAP1 MSTORE PUSH1 0x24 ADD JUMPDEST PUSH1 0x40 MLOAD DUP1 SWAP2 SUB SWAP1 REVERT JUMPDEST PUSH1 0x3 DUP3 ADD SLOAD PUSH1 0x1 PUSH1 0x1 PUSH1 0xA0 SHL SUB AND ISZERO PUSH2 0x6B1 JUMPI PUSH1 0x4 DUP3 ADD SLOAD PUSH1 0x3 DUP4 ADD SLOAD PUSH1 0x1 PUSH1 0x1 PUSH1 0xA0 SHL SUB AND PUSH0 SWAP1 DUP2 MSTORE PUSH1 0x1 PUSH1 0x20 MSTORE PUSH1 0x40 DUP2 KECCAK256 DUP1 SLOAD SWAP1 SWAP2 SWAP1 PUSH2 0x6AB SWAP1 DUP5 SWAP1 PUSH2 0xED6 JUMP JUMPDEST SWAP1 SWAP2 SSTORE POP POP JUMPDEST PUSH1 0x3 DUP3 ADD DUP1 SLOAD PUSH1 0x1 PUSH1 0x1 PUSH1 0xA0 SHL SUB NOT AND CALLER SWAP1 DUP2 OR SWAP1 SWAP2 SSTORE CALLVALUE PUSH1 0x4 DUP5 ADD DUP2 SWAP1 SSTORE PUSH1 0x40 MLOAD DUP6 SWAP2 PUSH32 0xE54EFF26401BF69B81B26F60BD85EF47F5D85275C1D268D84F68D6897431C47 SWAP2 PUSH2 0x703 SWAP2 DUP2 MSTORE PUSH1 0x20 ADD SWAP1 JUMP JUMPDEST PUSH1 0x40 MLOAD DUP1 SWAP2 SUB SWAP1 LOG3 POP POP PUSH2 0x723 PUSH1 0x1 PUSH0 MLOAD PUSH1 0x20 PUSH2 0xF17 PUSH0 CODECOPY PUSH0 MLOAD SWAP1 PUSH0 MSTORE SSTORE JUMP JUMPDEST POP JUMP JUMPDEST DUP2 PUSH0 SUB PUSH2 0x746 JUMPI PUSH1 0x40 MLOAD PUSH4 0xC6388EF7 PUSH1 0xE0 SHL DUP2 MSTORE PUSH1 0x4 ADD PUSH1 0x40 MLOAD DUP1 SWAP2 SUB SWAP1 REVERT JUMPDEST DUP1 PUSH0 SUB PUSH2 0x766 JUMPI PUSH1 0x40 MLOAD PUSH4 0x76166401 PUSH1 0xE0 SHL DUP2 MSTORE PUSH1 0x4 ADD PUSH1 0x40 MLOAD DUP1 SWAP2 SUB SWAP1 REVERT JUMPDEST PUSH0 DUP4 DUP2 MSTORE PUSH1 0x20 DUP2 SWAP1 MSTORE PUSH1 0x40 SWAP1 KECCAK256 PUSH1 0x5 DUP2 ADD SLOAD PUSH1 0xFF AND ISZERO PUSH2 0x799 JUMPI PUSH1 0x40 MLOAD PUSH4 0x4E75F0B5 PUSH1 0xE1 SHL DUP2 MSTORE PUSH1 0x4 ADD PUSH1 0x40 MLOAD DUP1 SWAP2 SUB SWAP1 REVERT JUMPDEST PUSH1 0x40 MLOAD PUSH4 0x31A9108F PUSH1 0xE1 SHL DUP2 MSTORE PUSH1 0x4 DUP2 ADD DUP6 SWAP1 MSTORE CALLER SWAP1 PUSH1 0x1 PUSH1 0x1 PUSH1 0xA0 SHL SUB PUSH32 0x0 AND SWAP1 PUSH4 0x6352211E SWAP1 PUSH1 0x24 ADD PUSH1 0x20 PUSH1 0x40 MLOAD DUP1 DUP4 SUB DUP2 DUP7 GAS STATICCALL ISZERO DUP1 ISZERO PUSH2 0x7FE JUMPI RETURNDATASIZE PUSH0 PUSH0 RETURNDATACOPY RETURNDATASIZE PUSH0 REVERT JUMPDEST POP POP POP POP PUSH1 0x40 MLOAD RETURNDATASIZE PUSH1 0x1F NOT PUSH1 0x1F DUP3 ADD AND DUP3 ADD DUP1 PUSH1 0x40 MSTORE POP DUP2 ADD SWAP1 PUSH2 0x822 SWAP2 SWAP1 PUSH2 0xEFB JUMP JUMPDEST PUSH1 0x1 PUSH1 0x1 PUSH1 0xA0 SHL SUB AND EQ PUSH2 0x849 JUMPI PUSH1 0x40 MLOAD PUSH4 0x5EC82351 PUSH1 0xE0 SHL DUP2 MSTORE PUSH1 0x4 ADD PUSH1 0x40 MLOAD DUP1 SWAP2 SUB SWAP1 REVERT JUMPDEST PUSH0 PUSH2 0x854 DUP4 TIMESTAMP PUSH2 0xED6 JUMP JUMPDEST SWAP1 POP PUSH1 0x40 MLOAD DUP1 PUSH1 0xC0 ADD PUSH1 0x40 MSTORE DUP1 CALLER PUSH1 0x1 PUSH1 0x1 PUSH1 0xA0 SHL SUB AND DUP2 MSTORE PUSH1 0x20 ADD DUP6 DUP2 MSTORE PUSH1 0x20 ADD DUP3 DUP2 MSTORE PUSH1 0x20 ADD PUSH0 PUSH1 0x1 PUSH1 0x1 PUSH1 0xA0 SHL SUB AND DUP2 MSTORE PUSH1 0x20 ADD PUSH0 DUP2 MSTORE PUSH1 0x20 ADD PUSH1 0x1 ISZERO ISZERO DUP2 MSTORE POP PUSH0 PUSH0 DUP8 DUP2 MSTORE PUSH1 0x20 ADD SWAP1 DUP2 MSTORE PUSH1 0x20 ADD PUSH0 KECCAK256 PUSH0 DUP3 ADD MLOAD DUP2 PUSH0 ADD PUSH0 PUSH2 0x100 EXP DUP2 SLOAD DUP2 PUSH1 0x1 PUSH1 0x1 PUSH1 0xA0 SHL SUB MUL NOT AND SWAP1 DUP4 PUSH1 0x1 PUSH1 0x1 PUSH1 0xA0 SHL SUB AND MUL OR SWAP1 SSTORE POP PUSH1 0x20 DUP3 ADD MLOAD DUP2 PUSH1 0x1 ADD SSTORE PUSH1 0x40 DUP3 ADD MLOAD DUP2 PUSH1 0x2 ADD SSTORE PUSH1 0x60 DUP3 ADD MLOAD DUP2 PUSH1 0x3 ADD PUSH0 PUSH2 0x100 EXP DUP2 SLOAD DUP2 PUSH1 0x1 PUSH1 0x1 PUSH1 0xA0 SHL SUB MUL NOT AND SWAP1 DUP4 PUSH1 0x1 PUSH1 0x1 PUSH1 0xA0 SHL SUB AND MUL OR SWAP1 SSTORE POP PUSH1 0x80 DUP3 ADD MLOAD DUP2 PUSH1 0x4 ADD SSTORE PUSH1 0xA0 DUP3 ADD MLOAD DUP2 PUSH1 0x5 ADD PUSH0 PUSH2 0x100 EXP DUP2 SLOAD DUP2 PUSH1 0xFF MUL NOT AND SWAP1 DUP4 ISZERO ISZERO MUL OR SWAP1 SSTORE POP SWAP1 POP POP PUSH32 0x0 PUSH1 0x1 PUSH1 0x1 PUSH1 0xA0 SHL SUB AND PUSH4 0x42842E0E CALLER ADDRESS DUP9 PUSH1 0x40 MLOAD DUP5 PUSH4 0xFFFFFFFF AND PUSH1 0xE0 SHL DUP2 MSTORE PUSH1 0x4 ADD PUSH2 0x98E SWAP4 SWAP3 SWAP2 SWAP1 PUSH2 0xEB2 JUMP JUMPDEST PUSH0 PUSH1 0x40 MLOAD DUP1 DUP4 SUB DUP2 PUSH0 DUP8 DUP1 EXTCODESIZE ISZERO DUP1 ISZERO PUSH2 0x9A5 JUMPI PUSH0 PUSH0 REVERT JUMPDEST POP GAS CALL ISZERO DUP1 ISZERO PUSH2 0x9B7 JUMPI RETURNDATASIZE PUSH0 PUSH0 RETURNDATACOPY RETURNDATASIZE PUSH0 REVERT JUMPDEST POP POP PUSH1 0x40 DUP1 MLOAD DUP8 DUP2 MSTORE PUSH1 0x20 DUP2 ADD DUP6 SWAP1 MSTORE CALLER SWAP4 POP DUP9 SWAP3 POP PUSH32 0xC9050D42180A61CB0D9EBB8AD118B62FE6EAB12CF12FF752C4A0CC7DA9DDF627 SWAP2 ADD PUSH1 0x40 MLOAD DUP1 SWAP2 SUB SWAP1 LOG3 POP POP POP POP POP JUMP JUMPDEST PUSH2 0xA07 PUSH2 0xCD2 JUMP JUMPDEST PUSH0 DUP2 DUP2 MSTORE PUSH1 0x20 DUP2 SWAP1 MSTORE PUSH1 0x40 SWAP1 KECCAK256 PUSH1 0x5 DUP2 ADD SLOAD PUSH1 0xFF AND PUSH2 0xA39 JUMPI PUSH1 0x40 MLOAD PUSH4 0x34DC687F PUSH1 0xE1 SHL DUP2 MSTORE PUSH1 0x4 ADD PUSH1 0x40 MLOAD DUP1 SWAP2 SUB SWAP1 REVERT JUMPDEST DUP1 PUSH1 0x2 ADD SLOAD TIMESTAMP LT ISZERO PUSH2 0xA5D JUMPI PUSH1 0x40 MLOAD PUSH3 0x3DE71 PUSH1 0xE8 SHL DUP2 MSTORE PUSH1 0x4 ADD PUSH1 0x40 MLOAD DUP1 SWAP2 SUB SWAP1 REVERT JUMPDEST PUSH1 0x5 DUP2 ADD DUP1 SLOAD PUSH1 0xFF NOT AND SWAP1 SSTORE PUSH1 0x3 DUP2 ADD SLOAD PUSH1 0x1 PUSH1 0x1 PUSH1 0xA0 SHL SUB AND PUSH2 0xB46 JUMPI DUP1 SLOAD PUSH1 0x40 MLOAD PUSH4 0x21421707 PUSH1 0xE1 SHL DUP2 MSTORE PUSH1 0x1 PUSH1 0x1 PUSH1 0xA0 SHL SUB PUSH32 0x0 DUP2 AND SWAP3 PUSH4 0x42842E0E SWAP3 PUSH2 0xACE SWAP3 ADDRESS SWAP3 AND SWAP1 DUP8 SWAP1 PUSH1 0x4 ADD PUSH2 0xEB2 JUMP JUMPDEST PUSH0 PUSH1 0x40 MLOAD DUP1 DUP4 SUB DUP2 PUSH0 DUP8 DUP1 EXTCODESIZE ISZERO DUP1 ISZERO PUSH2 0xAE5 JUMPI PUSH0 PUSH0 REVERT JUMPDEST POP GAS CALL ISZERO DUP1 ISZERO PUSH2 0xAF7 JUMPI RETURNDATASIZE PUSH0 PUSH0 RETURNDATACOPY RETURNDATASIZE PUSH0 REVERT JUMPDEST POP POP DUP3 SLOAD PUSH1 0x40 MLOAD PUSH0 DUP1 DUP3 MSTORE SWAP4 POP PUSH1 0x1 PUSH1 0x1 PUSH1 0xA0 SHL SUB SWAP1 SWAP2 AND SWAP2 POP DUP5 SWAP1 PUSH32 0x248B3E7715901CDE8605780CCB8B9208D44CB7D923FC3DE487406EA74CFF6ACF SWAP1 PUSH1 0x20 ADD PUSH1 0x40 MLOAD DUP1 SWAP2 SUB SWAP1 LOG4 POP PUSH2 0xCBC JUMP JUMPDEST PUSH1 0x3 DUP2 ADD SLOAD PUSH1 0x40 MLOAD PUSH4 0x21421707 PUSH1 0xE1 SHL DUP2 MSTORE PUSH1 0x1 PUSH1 0x1 PUSH1 0xA0 SHL SUB PUSH32 0x0 DUP2 AND SWAP3 PUSH4 0x42842E0E SWAP3 PUSH2 0xB9C SWAP3 ADDRESS SWAP3 AND SWAP1 DUP8 SWAP1 PUSH1 0x4 ADD PUSH2 0xEB2 JUMP JUMPDEST PUSH0 PUSH1 0x40 MLOAD DUP1 DUP4 SUB DUP2 PUSH0 DUP8 DUP1 EXTCODESIZE ISZERO DUP1 ISZERO PUSH2 0xBB3 JUMPI PUSH0 PUSH0 REVERT JUMPDEST POP GAS CALL ISZERO DUP1 ISZERO PUSH2 0xBC5 JUMPI RETURNDATASIZE PUSH0 PUSH0 RETURNDATACOPY RETURNDATASIZE PUSH0 REVERT JUMPDEST POP POP POP POP PUSH1 0x3 DUP2 ADD SLOAD PUSH1 0x40 MLOAD PUSH4 0x6A891703 PUSH1 0xE0 SHL DUP2 MSTORE PUSH1 0x4 DUP2 ADD DUP5 SWAP1 MSTORE PUSH1 0x1 PUSH1 0x1 PUSH1 0xA0 SHL SUB SWAP2 DUP3 AND PUSH1 0x24 DUP3 ADD MSTORE PUSH32 0x0 SWAP1 SWAP2 AND SWAP1 PUSH4 0x6A891703 SWAP1 PUSH1 0x44 ADD PUSH0 PUSH1 0x40 MLOAD DUP1 DUP4 SUB DUP2 PUSH0 DUP8 DUP1 EXTCODESIZE ISZERO DUP1 ISZERO PUSH2 0xC37 JUMPI PUSH0 PUSH0 REVERT JUMPDEST POP GAS CALL ISZERO DUP1 ISZERO PUSH2 0xC49 JUMPI RETURNDATASIZE PUSH0 PUSH0 RETURNDATACOPY RETURNDATASIZE PUSH0 REVERT JUMPDEST POP POP DUP3 SLOAD PUSH1 0x4 DUP5 ADD SLOAD PUSH2 0xC69 SWAP4 POP PUSH1 0x1 PUSH1 0x1 PUSH1 0xA0 SHL SUB SWAP1 SWAP2 AND SWAP2 POP PUSH2 0xCED JUMP JUMPDEST PUSH1 0x3 DUP2 ADD SLOAD DUP2 SLOAD PUSH1 0x4 DUP4 ADD SLOAD PUSH1 0x40 MLOAD SWAP1 DUP2 MSTORE PUSH1 0x1 PUSH1 0x1 PUSH1 0xA0 SHL SUB SWAP3 DUP4 AND SWAP3 SWAP1 SWAP2 AND SWAP1 DUP5 SWAP1 PUSH32 0x248B3E7715901CDE8605780CCB8B9208D44CB7D923FC3DE487406EA74CFF6ACF SWAP1 PUSH1 0x20 ADD PUSH1 0x40 MLOAD DUP1 SWAP2 SUB SWAP1 LOG4 POP JUMPDEST PUSH2 0x723 PUSH1 0x1 PUSH0 MLOAD PUSH1 0x20 PUSH2 0xF17 PUSH0 CODECOPY PUSH0 MLOAD SWAP1 PUSH0 MSTORE SSTORE JUMP JUMPDEST PUSH2 0xCDA PUSH2 0xD74 JUMP JUMPDEST PUSH1 0x2 PUSH0 MLOAD PUSH1 0x20 PUSH2 0xF17 PUSH0 CODECOPY PUSH0 MLOAD SWAP1 PUSH0 MSTORE SSTORE JUMP JUMPDEST PUSH0 DUP3 PUSH1 0x1 PUSH1 0x1 PUSH1 0xA0 SHL SUB AND DUP3 PUSH1 0x40 MLOAD PUSH0 PUSH1 0x40 MLOAD DUP1 DUP4 SUB DUP2 DUP6 DUP8 GAS CALL SWAP3 POP POP POP RETURNDATASIZE DUP1 PUSH0 DUP2 EQ PUSH2 0xD36 JUMPI PUSH1 0x40 MLOAD SWAP2 POP PUSH1 0x1F NOT PUSH1 0x3F RETURNDATASIZE ADD AND DUP3 ADD PUSH1 0x40 MSTORE RETURNDATASIZE DUP3 MSTORE RETURNDATASIZE PUSH0 PUSH1 0x20 DUP5 ADD RETURNDATACOPY PUSH2 0xD3B JUMP JUMPDEST PUSH1 0x60 SWAP2 POP JUMPDEST POP POP SWAP1 POP DUP1 PUSH2 0xD6F JUMPI PUSH1 0x40 MLOAD PUSH4 0xE21DCBB PUSH1 0xE1 SHL DUP2 MSTORE PUSH1 0x1 PUSH1 0x1 PUSH1 0xA0 SHL SUB DUP5 AND PUSH1 0x4 DUP3 ADD MSTORE PUSH1 0x24 DUP2 ADD DUP4 SWAP1 MSTORE PUSH1 0x44 ADD PUSH2 0x65F JUMP JUMPDEST POP POP POP JUMP JUMPDEST PUSH0 MLOAD PUSH1 0x20 PUSH2 0xF17 PUSH0 CODECOPY PUSH0 MLOAD SWAP1 PUSH0 MSTORE SLOAD PUSH1 0x2 SUB PUSH2 0x466 JUMPI PUSH1 0x40 MLOAD PUSH4 0x3EE5AEB5 PUSH1 0xE0 SHL DUP2 MSTORE PUSH1 0x4 ADD PUSH1 0x40 MLOAD DUP1 SWAP2 SUB SWAP1 REVERT JUMPDEST PUSH1 0x1 PUSH1 0x1 PUSH1 0xA0 SHL SUB DUP2 AND DUP2 EQ PUSH2 0x723 JUMPI PUSH0 PUSH0 REVERT JUMPDEST PUSH0 PUSH0 PUSH0 PUSH0 PUSH0 PUSH1 0x80 DUP7 DUP9 SUB SLT ISZERO PUSH2 0xDCB JUMPI PUSH0 PUSH0 REVERT JUMPDEST DUP6 CALLDATALOAD PUSH2 0xDD6 DUP2 PUSH2 0xDA3 JUMP JUMPDEST SWAP5 POP PUSH1 0x20 DUP7 ADD CALLDATALOAD PUSH2 0xDE6 DUP2 PUSH2 0xDA3 JUMP JUMPDEST SWAP4 POP PUSH1 0x40 DUP7 ADD CALLDATALOAD SWAP3 POP PUSH1 0x60 DUP7 ADD CALLDATALOAD PUSH8 0xFFFFFFFFFFFFFFFF DUP2 GT ISZERO PUSH2 0xE08 JUMPI PUSH0 PUSH0 REVERT JUMPDEST DUP7 ADD PUSH1 0x1F DUP2 ADD DUP9 SGT PUSH2 0xE18 JUMPI PUSH0 PUSH0 REVERT JUMPDEST DUP1 CALLDATALOAD PUSH8 0xFFFFFFFFFFFFFFFF DUP2 GT ISZERO PUSH2 0xE2E JUMPI PUSH0 PUSH0 REVERT JUMPDEST DUP9 PUSH1 0x20 DUP3 DUP5 ADD ADD GT ISZERO PUSH2 0xE3F JUMPI PUSH0 PUSH0 REVERT JUMPDEST SWAP6 SWAP9 SWAP5 SWAP8 POP SWAP3 SWAP6 POP POP POP PUSH1 0x20 ADD SWAP2 SWAP1 JUMP JUMPDEST PUSH0 PUSH1 0x20 DUP3 DUP5 SUB SLT ISZERO PUSH2 0xE60 JUMPI PUSH0 PUSH0 REVERT JUMPDEST DUP2 CALLDATALOAD PUSH2 0xE6B DUP2 PUSH2 0xDA3 JUMP JUMPDEST SWAP4 SWAP3 POP POP POP JUMP JUMPDEST PUSH0 PUSH1 0x20 DUP3 DUP5 SUB SLT ISZERO PUSH2 0xE82 JUMPI PUSH0 PUSH0 REVERT JUMPDEST POP CALLDATALOAD SWAP2 SWAP1 POP JUMP JUMPDEST PUSH0 PUSH0 PUSH0 PUSH1 0x60 DUP5 DUP7 SUB SLT ISZERO PUSH2 0xE9B JUMPI PUSH0 PUSH0 REVERT JUMPDEST POP POP DUP2 CALLDATALOAD SWAP4 PUSH1 0x20 DUP4 ADD CALLDATALOAD SWAP4 POP PUSH1 0x40 SWAP1 SWAP3 ADD CALLDATALOAD SWAP2 SWAP1 POP JUMP JUMPDEST PUSH1 0x1 PUSH1 0x1 PUSH1 0xA0 SHL SUB SWAP4 DUP5 AND DUP2 MSTORE SWAP2 SWAP1 SWAP3 AND PUSH1 0x20 DUP3 ADD MSTORE PUSH1 0x40 DUP2 ADD SWAP2 SWAP1 SWAP2 MSTORE PUSH1 0x60 ADD SWAP1 JUMP JUMPDEST DUP1 DUP3 ADD DUP1 DUP3 GT ISZERO PUSH2 0xEF5 JUMPI PUSH4 0x4E487B71 PUSH1 0xE0 SHL PUSH0 MSTORE PUSH1 0x11 PUSH1 0x4 MSTORE PUSH1 0x24 PUSH0 REVERT JUMPDEST SWAP3 SWAP2 POP POP JUMP JUMPDEST PUSH0 PUSH1 0x20 DUP3 DUP5 SUB SLT ISZERO PUSH2 0xF0B JUMPI PUSH0 PUSH0 REVERT JUMPDEST DUP2 MLOAD PUSH2 0xE6B DUP2 PUSH2 0xDA3 JUMP INVALID SWAP12 PUSH24 0x9B17422D0DF92223018B32B4D1FA46E071723D6817E2486D STOP EXTCODESIZE 0xEC 0xC5 PUSH0 STOP LOG2 PUSH5 0x6970667358 0x22 SLT KECCAK256 CREATE LOG1 MSTORE8 LOG2 0xDA CHAINID 0xAE 0xAA PUSH1 0xB7 DUP13 SWAP4 0x2A GT CALLCODE 0xA5 SWAP8 0x26 LOG2 SWAP16 PUSH19 0x475A646B09C75A40D5718164736F6C63430008 SHR STOP CALLER "},"methodIdentifiers":{"auctions(uint256)":"571a26a0","cancelAuction(uint256)":"96b5a755","createAuction(uint256,uint256,uint256)":"cda4beef","finalizeAuction(uint256)":"e8083863","getAuction(uint256)":"78bd7935","musicRightsNFT()":"908e1073","onERC721Received(address,address,uint256,bytes)":"150b7a02","pendingReturns(address)":"26b387bb","placeBid(uint256)":"9979ef45","royaltyManager()":"ee295d62","withdrawRefund()":"110f8874"}}}}}