{
  "_format": "hh-sol-artifact-1",
  "contractName": "RightsAuction",
  "sourceName": "contracts/RightsAuction.sol",
  "abi": [
    {
      "inputs": [
        {
          "internalType": "address",
          "name": "musicRightsNftAddress",
          "type": "address"
        },
        {
          "internalType": "address",
          "name": "royaltyManagerAddress",
          "type": "address"
        }
      ],
      "stateMutability": "nonpayable",
      "type": "constructor"
    },
    {
      "inputs": [],
      "name": "AuctionAlreadyActive",
      "type": "error"
    },
    {
      "inputs": [],
      "name": "AuctionEnded",
      "type": "error"
    },
    {
      "inputs": [],
      "name": "AuctionHasBids",
      "type": "error"
    },
    {
      "inputs": [],
      "name": "AuctionNotActive",
      "type": "error"
    },
    {
      "inputs": [],
      "name": "AuctionStillRunning",
      "type": "error"
    },
    {
      "inputs": [
        {
          "internalType": "uint256",
          "name": "requiredMinBid",
          "type": "uint256"
        }
      ],
      "name": "BidTooLow",
      "type": "error"
    },
    {
      "inputs": [],
      "name": "InvalidBid",
      "type": "error"
    },
    {
      "inputs": [],
      "name": "InvalidDuration",
      "type": "error"
    },
    {
      "inputs": [],
      "name": "NotSeller",
      "type": "error"
    },
    {
      "inputs": [],
      "name": "NothingToWithdraw",
      "type": "error"
    },
    {
      "inputs": [],
      "name": "ReentrancyGuardReentrantCall",
      "type": "error"
    },
    {
      "inputs": [
        {
          "internalType": "address",
          "name": "recipient",
          "type": "address"
        },
        {
          "internalType": "uint256",
          "name": "amount",
          "type": "uint256"
        }
      ],
      "name": "TransferFailed",
      "type": "error"
    },
    {
      "anonymous": false,
      "inputs": [
        {
          "indexed": true,
          "internalType": "uint256",
          "name": "tokenId",
          "type": "uint256"
        },
        {
          "indexed": true,
          "internalType": "address",
          "name": "seller",
          "type": "address"
        }
      ],
      "name": "AuctionCancelled",
      "type": "event"
    },
    {
      "anonymous": false,
      "inputs": [
        {
          "indexed": true,
          "internalType": "uint256",
          "name": "tokenId",
          "type": "uint256"
        },
        {
          "indexed": true,
          "internalType": "address",
          "name": "seller",
          "type": "address"
        },
        {
          "indexed": false,
          "internalType": "uint256",
          "name": "minBidWei",
          "type": "uint256"
        },
        {
          "indexed": false,
          "internalType": "uint256",
          "name": "endTime",
          "type": "uint256"
        }
      ],
      "name": "AuctionCreated",
      "type": "event"
    },
    {
      "anonymous": false,
      "inputs": [
        {
          "indexed": true,
          "internalType": "uint256",
          "name": "tokenId",
          "type": "uint256"
        },
        {
          "indexed": true,
          "internalType": "address",
          "name": "seller",
          "type": "address"
        },
        {
          "indexed": true,
          "internalType": "address",
          "name": "winner",
          "type": "address"
        },
        {
          "indexed": false,
          "internalType": "uint256",
          "name": "finalBidWei",
          "type": "uint256"
        }
      ],
      "name": "AuctionFinalized",
      "type": "event"
    },
    {
      "anonymous": false,
      "inputs": [
        {
          "indexed": true,
          "internalType": "uint256",
          "name": "tokenId",
          "type": "uint256"
        },
        {
          "indexed": true,
          "internalType": "address",
          "name": "bidder",
          "type": "address"
        },
        {
          "indexed": false,
          "internalType": "uint256",
          "name": "bidWei",
          "type": "uint256"
        }
      ],
      "name": "BidPlaced",
      "type": "event"
    },
    {
      "anonymous": false,
      "inputs": [
        {
          "indexed": true,
          "internalType": "address",
          "name": "bidder",
          "type": "address"
        },
        {
          "indexed": false,
          "internalType": "uint256",
          "name": "amountWei",
          "type": "uint256"
        }
      ],
      "name": "BidRefunded",
      "type": "event"
    },
    {
      "inputs": [
        {
          "internalType": "uint256",
          "name": "",
          "type": "uint256"
        }
      ],
      "name": "auctions",
      "outputs": [
        {
          "internalType": "address",
          "name": "seller",
          "type": "address"
        },
        {
          "internalType": "uint256",
          "name": "minBidWei",
          "type": "uint256"
        },
        {
          "internalType": "uint256",
          "name": "endTime",
          "type": "uint256"
        },
        {
          "internalType": "address",
          "name": "highestBidder",
          "type": "address"
        },
        {
          "internalType": "uint256",
          "name": "highestBidWei",
          "type": "uint256"
        },
        {
          "internalType": "bool",
          "name": "active",
          "type": "bool"
        }
      ],
      "stateMutability": "view",
      "type": "function"
    },
    {
      "inputs": [
        {
          "internalType": "uint256",
          "name": "tokenId",
          "type": "uint256"
        }
      ],
      "name": "cancelAuction",
      "outputs": [],
      "stateMutability": "nonpayable",
      "type": "function"
    },
    {
      "inputs": [
        {
          "internalType": "uint256",
          "name": "tokenId",
          "type": "uint256"
        },
        {
          "internalType": "uint256",
          "name": "minBidWei",
          "type": "uint256"
        },
        {
          "internalType": "uint256",
          "name": "durationSeconds",
          "type": "uint256"
        }
      ],
      "name": "createAuction",
      "outputs": [],
      "stateMutability": "nonpayable",
      "type": "function"
    },
    {
      "inputs": [
        {
          "internalType": "uint256",
          "name": "tokenId",
          "type": "uint256"
        }
      ],
      "name": "finalizeAuction",
      "outputs": [],
      "stateMutability": "nonpayable",
      "type": "function"
    },
    {
      "inputs": [
        {
          "internalType": "uint256",
          "name": "tokenId",
          "type": "uint256"
        }
      ],
      "name": "getAuction",
      "outputs": [
        {
          "components": [
            {
              "internalType": "address",
              "name": "seller",
              "type": "address"
            },
            {
              "internalType": "uint256",
              "name": "minBidWei",
              "type": "uint256"
            },
            {
              "internalType": "uint256",
              "name": "endTime",
              "type": "uint256"
            },
            {
              "internalType": "address",
              "name": "highestBidder",
              "type": "address"
            },
            {
              "internalType": "uint256",
              "name": "highestBidWei",
              "type": "uint256"
            },
            {
              "internalType": "bool",
              "name": "active",
              "type": "bool"
            }
          ],
          "internalType": "struct RightsAuction.Auction",
          "name": "",
          "type": "tuple"
        }
      ],
      "stateMutability": "view",
      "type": "function"
    },
    {
      "inputs": [],
      "name": "musicRightsNFT",
      "outputs": [
        {
          "internalType": "contract IERC721",
          "name": "",
          "type": "address"
        }
      ],
      "stateMutability": "view",
      "type": "function"
    },
    {
      "inputs": [
        {
          "internalType": "address",
          "name": "",
          "type": "address"
        },
        {
          "internalType": "address",
          "name": "",
          "type": "address"
        },
        {
          "internalType": "uint256",
          "name": "",
          "type": "uint256"
        },
        {
          "internalType": "bytes",
          "name": "",
          "type": "bytes"
        }
      ],
      "name": "onERC721Received",
      "outputs": [
        {
          "internalType": "bytes4",
          "name": "",
          "type": "bytes4"
        }
      ],
      "stateMutability": "pure",
      "type": "function"
    },
    {
      "inputs": [
        {
          "internalType": "address",
          "name": "",
          "type": "address"
        }
      ],
      "name": "pendingReturns",
      "outputs": [
        {
          "internalType": "uint256",
          "name": "",
          "type": "uint256"
        }
      ],
      "stateMutability": "view",
      "type": "function"
    },
    {
      "inputs": [
        {
          "internalType": "uint256",
          "name": "tokenId",
          "type": "uint256"
        }
      ],
      "name": "placeBid",
      "outputs": [],
      "stateMutability": "payable",
      "type": "function"
    },
    {
      "inputs": [],
      "name": "royaltyManager",
      "outputs": [
        {
          "internalType": "contract RoyaltyManager",
          "name": "",
          "type": "address"
        }
      ],
      "stateMutability": "view",
      "type": "function"
    },
    {
      "inputs": [],
      "name": "withdrawRefund",
      "outputs": [],
      "stateMutability": "nonpayable",
      "type": "function"
    }
  ],
  "bytecode": "0x60c060405234801561000f575f5ffd5b506040516110a73803806110a783398101604081905261002e916100bf565b60017f9b779b17422d0df92223018b32b4d1fa46e071723d6817e2486d003becc55f00556001600160a01b038216158061006f57506001600160a01b038116155b1561008d5760405163c6388ef760e01b815260040160405180910390fd5b6001600160a01b039182166080521660a0526100f0565b80516001600160a01b03811681146100ba575f5ffd5b919050565b5f5f604083850312156100d0575f5ffd5b6100d9836100a4565b91506100e7602084016100a4565b90509250929050565b60805160a051610f6c61013b5f395f81816103a70152610bf401525f81816102ec01528181610515015281816107b90152818161094001528181610a940152610b620152610f6c5ff3fe60806040526004361061009a575f3560e01c8063908e107311610062578063908e1073146102db57806396b5a755146103265780639979ef4514610345578063cda4beef14610358578063e808386314610377578063ee295d6214610396575f5ffd5b8063110f88741461009e578063150b7a02146100b457806326b387bb146100fd578063571a26a01461013657806378bd7935146101d2575b5f5ffd5b3480156100a9575f5ffd5b506100b26103c9565b005b3480156100bf575f5ffd5b506100df6100ce366004610db7565b630a85bd0160e11b95945050505050565b6040516001600160e01b031990911681526020015b60405180910390f35b348015610108575f5ffd5b50610128610117366004610e50565b60016020525f908152604090205481565b6040519081526020016100f4565b348015610141575f5ffd5b50610194610150366004610e72565b5f602081905290815260409020805460018201546002830154600384015460048501546005909501546001600160a01b039485169593949293919092169160ff1686565b604080516001600160a01b039788168152602081019690965285019390935293166060830152608082019290925290151560a082015260c0016100f4565b3480156101dd575f5ffd5b506102846101ec366004610e72565b6040805160c0810182525f80825260208201819052918101829052606081018290526080810182905260a0810191909152505f9081526020818152604091829020825160c08101845281546001600160a01b03908116825260018301549382019390935260028201549381019390935260038101549091166060830152600481015460808301526005015460ff16151560a082015290565b6040516100f4919081516001600160a01b0390811682526020808401519083015260408084015190830152606080840151909116908201526080808301519082015260a09182015115159181019190915260c00190565b3480156102e6575f5ffd5b5061030e7f000000000000000000000000000000000000000000000000000000000000000081565b6040516001600160a01b0390911681526020016100f4565b348015610331575f5ffd5b506100b2610340366004610e72565b610468565b6100b2610353366004610e72565b6105b8565b348015610363575f5ffd5b506100b2610372366004610e89565b610726565b348015610382575f5ffd5b506100b2610391366004610e72565b6109ff565b3480156103a1575f5ffd5b5061030e7f000000000000000000000000000000000000000000000000000000000000000081565b6103d1610cd2565b335f908152600160205260408120549081900361040157604051630686827b60e51b815260040160405180910390fd5b335f8181526001602052604081205561041a9082610ced565b60405181815233907f8377883650d2137d6e6d67bcf2dbb9b1dab287d68240a17ff910b9fb7a0ad5ff9060200160405180910390a25061046660015f516020610f175f395f51905f5255565b565b5f818152602081905260409020600581015460ff1661049a576040516334dc687f60e11b815260040160405180910390fd5b80546001600160a01b031633146104c457604051635ec8235160e01b815260040160405180910390fd5b60038101546001600160a01b0316156104f0576040516335473acb60e01b815260040160405180910390fd5b60058101805460ff191690558054604051632142170760e11b81526001600160a01b037f00000000000000000000000000000000000000000000000000000000000000008116926342842e0e9261054f92309216908790600401610eb2565b5f604051808303815f87803b158015610566575f5ffd5b505af1158015610578573d5f5f3e3d5ffd5b505082546040516001600160a01b0390911692508491507f10ac9f0bb365b5d22d7bec500408692f23fdf83eadfec71615ef88b4c1134f0e905f90a35050565b6105c0610cd2565b5f818152602081905260409020600581015460ff166105f2576040516334dc687f60e11b815260040160405180910390fd5b806002015442106106165760405163283a4a6160e21b815260040160405180910390fd5b5f81600401545f14610637576004820154610632906001610ed6565b61063d565b81600101545b905080341015610668576040516331173c6560e01b8152600481018290526024015b60405180910390fd5b60038201546001600160a01b0316156106b157600482015460038301546001600160a01b03165f90815260016020526040812080549091906106ab908490610ed6565b90915550505b6003820180546001600160a01b03191633908117909155346004840181905560405185917f0e54eff26401bf69b81b26f60bd85ef47f5d85275c1d268d84f68d6897431c479161070391815260200190565b60405180910390a3505061072360015f516020610f175f395f51905f5255565b50565b815f036107465760405163c6388ef760e01b815260040160405180910390fd5b805f0361076657604051637616640160e01b815260040160405180910390fd5b5f838152602081905260409020600581015460ff161561079957604051634e75f0b560e11b815260040160405180910390fd5b6040516331a9108f60e11b81526004810185905233906001600160a01b037f00000000000000000000000000000000000000000000000000000000000000001690636352211e90602401602060405180830381865afa1580156107fe573d5f5f3e3d5ffd5b505050506040513d601f19601f820116820180604052508101906108229190610efb565b6001600160a01b03161461084957604051635ec8235160e01b815260040160405180910390fd5b5f6108548342610ed6565b90506040518060c00160405280336001600160a01b031681526020018581526020018281526020015f6001600160a01b031681526020015f8152602001600115158152505f5f8781526020019081526020015f205f820151815f015f6101000a8154816001600160a01b0302191690836001600160a01b0316021790555060208201518160010155604082015181600201556060820151816003015f6101000a8154816001600160a01b0302191690836001600160a01b031602179055506080820151816004015560a0820151816005015f6101000a81548160ff0219169083151502179055509050507f00000000000000000000000000000000000000000000000000000000000000006001600160a01b03166342842e0e3330886040518463ffffffff1660e01b815260040161098e93929190610eb2565b5f604051808303815f87803b1580156109a5575f5ffd5b505af11580156109b7573d5f5f3e3d5ffd5b505060408051878152602081018590523393508892507fc9050d42180a61cb0d9ebb8ad118b62fe6eab12cf12ff752c4a0cc7da9ddf627910160405180910390a35050505050565b610a07610cd2565b5f818152602081905260409020600581015460ff16610a39576040516334dc687f60e11b815260040160405180910390fd5b8060020154421015610a5d576040516203de7160e81b815260040160405180910390fd5b60058101805460ff1916905560038101546001600160a01b0316610b46578054604051632142170760e11b81526001600160a01b037f00000000000000000000000000000000000000000000000000000000000000008116926342842e0e92610ace92309216908790600401610eb2565b5f604051808303815f87803b158015610ae5575f5ffd5b505af1158015610af7573d5f5f3e3d5ffd5b505082546040515f80825293506001600160a01b03909116915084907f248b3e7715901cde8605780ccb8b9208d44cb7d923fc3de487406ea74cff6acf9060200160405180910390a450610cbc565b6003810154604051632142170760e11b81526001600160a01b037f00000000000000000000000000000000000000000000000000000000000000008116926342842e0e92610b9c92309216908790600401610eb2565b5f604051808303815f87803b158015610bb3575f5ffd5b505af1158015610bc5573d5f5f3e3d5ffd5b505050506003810154604051636a89170360e01b8152600481018490526001600160a01b0391821660248201527f000000000000000000000000000000000000000000000000000000000000000090911690636a891703906044015f604051808303815f87803b158015610c37575f5ffd5b505af1158015610c49573d5f5f3e3d5ffd5b505082546004840154610c6993506001600160a01b039091169150610ced565b6003810154815460048301546040519081526001600160a01b03928316929091169084907f248b3e7715901cde8605780ccb8b9208d44cb7d923fc3de487406ea74cff6acf9060200160405180910390a4505b61072360015f516020610f175f395f51905f5255565b610cda610d74565b60025f516020610f175f395f51905f5255565b5f826001600160a01b0316826040515f6040518083038185875af1925050503d805f8114610d36576040519150601f19603f3d011682016040523d82523d5f602084013e610d3b565b606091505b5050905080610d6f57604051630e21dcbb60e11b81526001600160a01b03841660048201526024810183905260440161065f565b505050565b5f516020610f175f395f51905f525460020361046657604051633ee5aeb560e01b815260040160405180910390fd5b6001600160a01b0381168114610723575f5ffd5b5f5f5f5f5f60808688031215610dcb575f5ffd5b8535610dd681610da3565b94506020860135610de681610da3565b935060408601359250606086013567ffffffffffffffff811115610e08575f5ffd5b8601601f81018813610e18575f5ffd5b803567ffffffffffffffff811115610e2e575f5ffd5b886020828401011115610e3f575f5ffd5b959894975092955050506020019190565b5f60208284031215610e60575f5ffd5b8135610e6b81610da3565b9392505050565b5f60208284031215610e82575f5ffd5b5035919050565b5f5f5f60608486031215610e9b575f5ffd5b505081359360208301359350604090920135919050565b6001600160a01b039384168152919092166020820152604081019190915260600190565b80820180821115610ef557634e487b7160e01b5f52601160045260245ffd5b92915050565b5f60208284031215610f0b575f5ffd5b8151610e6b81610da356fe9b779b17422d0df92223018b32b4d1fa46e071723d6817e2486d003becc55f00a2646970667358221220f0a153a2da46aeaa60b78c932a11f2a59726a29f72475a646b09c75a40d5718164736f6c634300081c0033",
  "linkReferences": {},
  "deployedLinkReferences": {}
}